:100000000C9432030C9479030C9479030C947903C7
:100010000C9479030C9479030C9479030C94790370
:100020000C9479030C9479030C9441240C941325BB
:100030000C94621F0C9479030C9479030C9479034B
:100040000C9479030C9479030C9479030C94790340
:100050000C9479030C94BB1F0C9479030C947903D2
:100060000C9479030C9479030C9479030C94790320
:100070000C9479030C9479030C9479030C94790310
:100080000C9479030C9479030C9479030C94790300
:100090000C9479030C9479030C9479030C947903F0
:1000A0000C9479030C9479030C9479036309630924
:1000B0008F098F09F0090E0A320B320B190AAE0AAA
:1000C000BF0ABF0A220B320B320B2B0BE40BE40BE3
:1000D000F60BF60BED0BF60BF60BF60BE40BE40B45
:1000E000F20BF60BF60BF20B8025A7259F26A72512
:1000F0009F26F32516269F266D267C2629001E00A6
:100100001F0020002100220029004F0023002400AE
:100110002500260027002D00350014001A000800D5
:100120001500170028002A041C0018000C001200FB
:10013000130031002E0004001661076409680A00EC
:10014000000000000B000D680E640F6133003400E6
:10015000E1001D411B420643194105682B002A009E
:1001600011781041364337423841E50001533900D8
:10017000E10450004F6200000000000000005162E6
:100180005200AA00AE00A9000000E3002A002C00E3
:10019000230206081908100A2961110028002B0003
:1001A0000453000035003A003B003C003D003E0097
:1001B000010001003F0040004100420043004400B4
:1001C00001001E021F022002210222020100010082
:1001D00023022402250226022702450001001E00F8
:1001E0001F00200021002200000000002300240046
:1001F000250026002700010001002F0030002F02FB
:1002000030023502010001002302260227022000ED
:1002100031000100010001000100010001000000A7
:100220000000000000000100370027002E00010040
:1002300000000100010001000100010001000100B7
:1002400001000100010001000100000001000100A7
:100250000100010001000100010001000100010096
:100260000100010001000100010001000100ED009A
:100270000100010001000100010001000100010076
:100280000100010001000100EF00EE00F00001009C
:100290000000000001000100010001000100AE00AB
:1002A0000100010001000100010001000100010046
:1002B00001000100AC00AB000100010001000100E1
:1002C0000100F100F2000000000000000000AA00A0
:1002D000A900A800010001000000010001000100C8
:1002E0000100010001000100010001000100010006
:1002F00001000000000000000000000000000000FD
:1003000000000000000000000000000000000000ED
:10031000000000005200000000000000000000008B
:10032000000000000000000000000000000050007D
:1003300051004F000000000000000000500051007C
:1003400052004F000000000000000000000000000C
:10035000000000000000000000000000000000009D
:10036000000000000000000000000000000000008D
:10037000000000000000000000000000000000007D
:100380000000010001000100010001000100010066
:1003900001000100010001000100000035001E0005
:1003A0001F0020002100220029000000230024005B
:1003B0002500260027002D002B0014001A0008003D
:1003C0001500170000002A041C0018000C00120081
:1003D00013003100000004001600070009000A00A5
:1003E000000000000B000D000E000F003300340071
:1003F000E1001D001B0006001900050000002A0096
:1004000011001000360037003800E5000000000041
:10041000000050004F0000000000000000005200EB
:1004200051000000000000000000E3002A002C0042
:1004300001000100010001000100010028002B0063
:100440000100000000000000000000002A2B28002E
:100450000000000000000000000000000000002973
:10046000000000002C1E3420212224342627252EB3
:10047000362D3738271E1F202122232425263333EB
:10048000362E37381F0405060708090A0B0C0D0E17
:100490000F101112131415161718191A1B1C1D2FE3
:1004A0003130232D350405060708090A0B0C0D0E03
:1004B0000F101112131415161718191A1B1C1D2FC3
:1004C0003130354C0000000000000000000000004A
:1004D000000000000000000000000000000000001C
:1004E00000000000000000007E0F00D4FFFFFFC7E7
:1004F0000000007812034500720067006F0044009E
:100500006F006E006500000012034B002E005400C7
:100510002E0045002E0043002E00000004030904B5
:1005200009023B00020100A0FA09040000010301D6
:100530000100092111010001224000070581030883
:10054000000A090401000103000000092111010053
:100550000122B6000705820320000A1201000200F2
:100560000000080912282301000102000105010909
:1005700002A10185020901A1000509190129081537
:100580000025019508750181020501093009311521
:1005900081257F95027508810609381581257F958B
:1005A0000175088106050C0A38021581257F950121
:1005B00075088106C0C005010980A10185031901E4
:1005C0002AB700150126B700950175108100C005F6
:1005D0000C0901A101850419012AA002150126A018
:1005E00002950175108100C005010906A10185066B
:1005F000050719E029E71500250195087501810215
:100600000507190029EF1500250195F075018102F4
:1006100005081901290595057501910295017503D4
:100620009101C005010906A101050719E029E71597
:100630000025019508750181029501750881010564
:1006400007190029FF150026FF009506750881008F
:100650000508190129059505750191029501750394
:100660009101C00011241FBECFEFDAE0DEBFCDBF85
:1006700004B603FE27C08091EB029091EC02A0919A
:10068000ED02B091EE028730904BA740B04BD1F411
:100690001092EB021092EC021092ED021092EE0218
:1006A00014BE84B7877F84BF0FB6F894A895809155
:1006B0006000886180936000109260000FBEE0E0EF
:1006C000F8E3099511E0A0E0B1E0EAE8FEE402C039
:1006D00005900D92AA37B107D9F722E0AAE7B1E059
:1006E00001C01D92AB3EB207E1F70E94A7160C9421
:1006F00043270C94000080B38F7080BB81B38F7050
:1007000081BB84B1897F84B985B1897F85B90C9417
:10071000F7046E98769A8AB183768AB98BB18C6920
:100720008BB93E98469A24982C9A0C942E050895DD
:100730000C9497030C9497030E947B030E948903F7
:10074000E0EDF1E08CE791E011921192DC012EE0F6
:100750001D922150E9F70E9621E0803D9207A1F706
:100760000C949B060E947B030E948903E0EDF1E05C
:1007700011821082138212821582148217821682CD
:10078000118610861386128608952EE0829FC0017E
:100790001124FC01E458FE4F20E030E040E050E03E
:1007A00061E070E09081992319F09150908309C025
:1007B000CB01022E02C0880F991F0A94E2F7482B42
:1007C000592B2F5F3F4F31962E30310559F7CA0113
:1007D0000895CF932EE0629FB001112420E030E015
:1007E000A1E0B0E0C5E0AD01022E02C0440F551FEC
:1007F0000A94E2F748235923452B31F0FB01E20F1D
:10080000F31FE458FE4FC0832F5F3F4F2E3031055A
:1008100051F7CF9108954F925F927F928F929F925E
:10082000AF92BF92CF92DF92EF92FF920F931F93FE
:10083000CF93DF930E94120500ED11E0C0E0D1E0FC
:10084000C33099F028F4C13051F0C23059F004C0DF
:10085000C43071F0C53079F0849A8C980EC0859AB6
:100860008D980BC0869A8E9808C0879A8F9805C07D
:10087000219A299802C0229A2A988C2F0E94FB0460
:1008800080EA8A95F1F78C2F0E94C5035C010E94D3
:100890004A054B9904C060E4E62EF12C02C0E12C1D
:1008A000F12C4A9903C0A0E2B0E002C0A0E0B0E0A1
:1008B0004C9904C050E1452E512C02C0412C512CC2
:1008C000369903C068E070E002C060E070E029B1D2
:1008D000022E000C330B209530952227330F221F58
:1008E0003327220F331F220F331F669903C042E0C4
:1008F00050E002C040E050E073B0F801C080D18009
:100900007294EFE07E227D2670FA882480F8912C84
:10091000882999298E299F298A2B9B2BF201E82B64
:10092000F92B6E2B7F2B262B372B422B532B4C2551
:100930005D25A422B522AC24BD246C2FC6018A25D6
:100940009B250E94E903F801A192B1928F010E94B8
:100950007B03CF5FC63009F073CF0E94A30681E00E
:10096000DF91CF911F910F91FF90EF90DF90CF908B
:10097000BF90AF909F908F907F905F904F90089521
:10098000E82FF0E0EE0FFF1FE053FE4F80819181D2
:1009900008950895853008F08F5F2091DC0130E0E4
:1009A000A90102C0559547958A95E2F7CA01817061
:1009B00008950F931F93CF93DF931F92CDB7DEB7A8
:1009C000982F69838091DD01882359F0692F04E60F
:1009D00010E021E030E0AE014F5F5F4F80E40E9405
:1009E0005A1D0F90DF91CF911F910F9108956FEFD6
:1009F00081E00C94D9048F5F61E070E001C0660F64
:100A00008A95EAF7609581E00C94D9046FEF82E053
:100A10000E94D9046FEF8CE00E94D9046FEF81E04F
:100A20000C94D90464E670E080E40E945F1C81119C
:100A30000CC00E94D31D8091DD0181110EC081E0A8
:100A40008093DD010E94060506C08091DD018130A2
:100A500021F41092DD010C94D20B08950E94591CD0
:100A60000C9412050F931F93982F8091DD0188231A
:100A700049F0AB01692F04E610E021E030E080E4AA
:100A80000E94871D1F910F9108956CED71E082E126
:100A90000C9432058F929F92AF92BF92EF92FF9289
:100AA0000F931F93CF93DF930E944505C0E0D0E0E2
:100AB00000E010E08DE0E82EF12C812C912C540107
:100AC00083948C2F0E94CA04882371F0C7018C1B69
:100AD0009D0BA501940104C0220F331F441F551F15
:100AE0008A95D2F7022B132B2196CE30D10549F7E8
:100AF000C801DF91CF911F910F91FF90EF90BF90B0
:100B0000AF909F908F90089584B1886684B985B125
:100B1000877985B9209A289A559A5D9A08952598DB
:100B20002D9826982E9823982B982098289A259AC5
:100B30002D9A2FEF80E792E0215080409040E1F71E
:100B400000C00000269A2E9A2FEF80E792E02150F5
:100B500080409040E1F700C00000239A2B9A2FEFCD
:100B600080E792E0215080409040E1F700C0000013
:100B700025982D982FEF80E792E0215080409040FB
:100B8000E1F700C0000026982E982FEF80E792E052
:100B9000215080409040E1F700C0000023982B983E
:100BA00025982D9826982E9823982B982098289A47
:100BB00008950E9484050E948F050C9498039C015F
:100BC0003A9521153F4130F5BC0166277270AC01A2
:100BD000442754709C012227387094FF0FC090FF67
:100BE00002C080E101C080E0672B09F08062452BE4
:100BF00009F08064232B79F080680895892F817033
:100C0000672B09F08260452B09F08460232B19F0D3
:100C10008860089580E00895CF93DF93EC01805EB3
:100C20009109089710F0209731F4CE010E94DF055A
:100C30000E941E0905C0CE010E94DF050E94AA0B7A
:100C40008C2FDF91CF910C94EC07CF93DF93EC01C5
:100C50000E949608CE01805E9109089710F02097B7
:100C600039F4CE010E94DF05DF91CF910C94250964
:100C7000CE010E94DF05DF91CF910C94B10BCF9391
:100C8000DF93EC010E940C06CE01DF91CF910C9412
:100C9000250681E0089581E008950C944B0608959F
:100CA0000C944F061F93CF93DF9300D000D01F9278
:100CB000CDB7DEB749835A836B833091DE018981DA
:100CC0009A81311114C0662359F0222349F00E9401
:100CD000880D182F682F89819A810E94310D03C0D9
:100CE0000E945C0D182F69817A81812F04C00E94B7
:100CF000880D69817A810F900F900F900F900F905F
:100D0000DF91CF911F910C944A14FC01262F408152
:100D100051816281738184810C94520681E008952F
:100D2000CF93DF93EC0160E00E948506BE01DF9166
:100D3000CF910C9450060E9477160E9492070E9451
:100D40006F190C94D9050C949A0380E00C949307C6
:100D500008950C94A8060E94D20B0E94A9062FEFBA
:100D600084E39CE0215080409040E1F700C0000007
:100D70000C94E11F0F931F93CF93DF938C0161E0DD
:100D80000E948506EC01B8010E944D06882309F4F3
:100D900044C0B801CE010E94131A8823F1F1B801B2
:100DA000CE010E94071C8823C1F1B801CE010E9428
:100DB000311A882391F1B801CE010E94631B882368
:100DC00061F1F8018281882309F1CB358DE5D807DF
:100DD000C1F050F4C115FCE5DF0781F0CF3DDC45E3
:100DE000A9F40E943F1319C0CC35EDE5DE0761F090
:100DF000CD35DD4559F40E94821208C00E94AB0631
:100E00000CC00E948B1202C00E948E12C801DF919A
:100E1000CF911F910F910C94490680E0DF91CF9103
:100E20001F910F9108950C94A8060E94E11D0E9445
:100E300093070C941307DF92EF92FF920F931F9387
:100E4000CF93DF93E82FF0E0EC5BFB4FD490282F9B
:100E500026952695269530E0F901EC51FB4F04913B
:100E6000877010E0082E02C0159507950A94E2F7E6
:100E700001701127F901EC52FB4FE490F12C082E80
:100E800002C0F594E7940A94E2F791E0E922FF2486
:100E9000F901EC53FB4FC491D0E002C0D595C79542
:100EA0008A95E2F7C170DD270115110519F081EE71
:100EB0000E94EC07E114F10419F086EE0E94EC07A1
:100EC0008D2D0E941509EF2819F086EE0E949608D4
:100ED000012B19F081EE0E949608CD2B51F08CE287
:100EE000DF91CF911F910F91FF90EF90DF900C94C5
:100EF0001509DF91CF911F910F91FF90EF90DF9037
:100F00000895982F9F709A50963010F0805D01C020
:100F1000895A0C941B0708950C948B0781E008955F
:100F20000C948E070895CF93C82F0E948C078C2FA6
:100F30000E949007CF910895CF93DF93CDB7DEB78E
:100F40002B970FB6F894DEBF0FBECDBF4F835887E7
:100F500069877A878B8761110E94CE119E012F5F6E
:100F60003F4F86E0F90111928A95E9F785E0FE018D
:100F70003796D90101900D928A95E1F789819A817E
:100F80004C815D81452B31F09F3F31F491E08F3FE3
:100F900019F403C091E001C090E090FF09C04981BD
:100FA0005A816B817C818D819E810E94EC1005C0ED
:100FB000C9010E948E068111F2CF2B960FB6F894CC
:100FC000DEBF0FBECDBFDF91CF910895FC018081C0
:100FD00091810E94CA0D0895CF93882309F4A4C07B
:100FE000C82F8238C1F40E94E11D81FD9DC069E3D4
:100FF00080910201909103010E94DA1E0E9400126A
:101000002FEF81EE94E0215080409040E1F700C046
:10101000000069E319C0833801F50E94E11D80FDDD
:1010200083C063E580910201909103010E94DA1E62
:101030000E9400122FEF81EE94E0215080409040FA
:10104000E1F700C0000063E5809102019091030187
:101050000E94E51ECF910C9400128438C1F40E94C6
:10106000E11D82FD61C067E480910201909103015E
:101070000E94DA1E0E9400122FEF81EE94E02150B0
:1010800080409040E1F700C0000067E4DDCF8CEFC6
:101090008C0F813AD0F46C2F809102019091030162
:1010A0000E945A1E882349F06C2F80910201909172
:1010B00003010E94E51E0E9400126C2F8091020124
:1010C000909103010E94DA1EC5CF80E28C0F883018
:1010D00048F4C77081E001C0880FCA95EAF70E9402
:1010E000AE11B8CFEBE5EC0FE33040F4F0E0EB5B92
:1010F000FE4F808190E0CF910C94181EE8E5EC0F34
:10110000E73150F4F0E0EE0FFF1FE95EFE4F808103
:101110009181CF910C942E1ECD3E30F08C2F0E94E9
:101120003617CF910C940818CF910895882309F4AD
:1011300064C0823879F40E94E11D81FF5EC069E3DA
:1011400080910201909103010E94DA1E0E94001218
:1011500069E310C08338B1F40E94E11D80FF4DC0E7
:1011600063E580910201909103010E94DA1E0E94C2
:10117000001263E580910201909103010E94E51E37
:101180000C940012843879F40E94E11D82FF35C06E
:1011900067E480910201909103010E94DA1E0E948F
:1011A000001267E4E7CF9CEF980F913A10F4682F94
:1011B000E1CF90E2980F983050F4877091E001C031
:1011C000990F8A95EAF7892F0E94B411D9CF9BE530
:1011D000980F933020F480E090E00C94181E98E56E
:1011E000980F973120F480E090E00C942E1E8D3EF5
:1011F00020F00E9491170C94081808951F93CF9324
:10120000DF93182FEB010E94EC07209741F08FE944
:101210009FE00197F1F700C000002197F6CF812FE2
:10122000DF91CF911F910C949608893319F060E0FB
:1012300070E002C060E570E00C94FE08882321F0A5
:101240000E94AE110C9400120895882321F00E9490
:10125000B4110C9400120895CF92DF92EF92FF9296
:101260000F931F93CF93DF937C01162FC72FFC01A1
:10127000D281058102950F700E94A4118823B9F0D4
:10128000DD23A9F08C2F807F803421F080E2810F54
:10129000883068F08091D20282FD09C082E00E940D
:1012A00050120E94A41191E0D82ED92601C0D12C51
:1012B000CC2EC2948FE0C8228C2D90E0FC01EA5A1B
:1012C000FF4F0C94FB268C2F807FCF70882311F06A
:1012D000C295C07FDD2399F0CC2309F49EC180E242
:1012E000810F883010F0111104C08C2F0E94AE11B4
:1012F00003C08C2F0E94C1110E9400128EC1812F49
:101300000E949608CC2309F4ADC180E2810F883099
:1013100038F1112329F18C2F0E94C71124C08C2F82
:10132000807FCF70803211F0C295C07F112319F0F9
:101330001130A1F13FC08091D20282FF17C0DD239E
:1013400049F0CC2329F08C2F0E94AE110E9400128C
:1013500080E064C180E00E949608CC2309F482C139
:101360008C2F0E94B4110E9400127CC1DD2371F009
:10137000002341F0013031F40E94E1118C2B0E94D6
:10138000E91170C10E94E1118C2B0EC0002319F0ED
:10139000013009F467C10E94F6111EC0DD2339F047
:1013A000023008F05FC18C2F0E941E095BC1011141
:1013B00059C112C0DD2319F00023A9F32EC1002367
:1013C00059F0193309F03AC1FFEF27EE83E0F150ED
:1013D00020408040E1F730C18C2F0E94250942C196
:1013E0008C2F86958695837019F0813061F03AC113
:1013F000DD2321F0812F9C2F937002C080E090E0CC
:101400000E94181E37C1DD2321F0812F9C2F93707D
:1014100002C080E090E00E942E1E2CC1812FDD23AF
:1014200019F00E94361702C00E9491170E940818F6
:1014300021C18C2F837009F045C0D11117C1412FF4
:10144000429546954770440F440F612F6F70862F69
:1014500090E0A0E0B0E0042E04C0880F991FAA1FFE
:10146000BB1F0A94D2F714FF10C00FE010E020E079
:1014700030E004C0000F111F221F331F4A95D2F71E
:10148000009510952095309503C000E010E098017C
:10149000C695C695C370BC01CD01602B712B822B04
:1014A000932BC23049F058F4C13019F00E94470C18
:1014B000DDC00E94350CDAC00E94590CD7C00E94D2
:1014C000330CD4C0DD2319F08C2F817001C08695B8
:1014D000882309F4CBC0412F429546954770440FAD
:1014E000440F612F6F70862F90E0A0E0B0E0042ED3
:1014F00004C0880F991FAA1FBB1F0A94D2F714FFBC
:1015000010C00FE010E020E030E004C0000F111F19
:10151000221F331F4A95D2F70095109520953095DC
:1015200003C000E010E09801C695C695C370BC01E9
:10153000CD01602B712B822B932BC23049F058F4D4
:10154000C13019F00E940C0D91C00E94FA0C8EC09F
:101550000E941E0D8BC00E946D0C88C0CF70DD23D1
:1015600039F08C2F0E94930C812F0E941E097EC09F
:10157000812F0E9425098C2F0E94B40C77C0123F46
:1015800019F128F4103F41F0113FB9F042C0133F68
:1015900011F1143F71F03DC0DD2339F0011162C03B
:1015A0008C2F8F710E94D90C5DC0023008F05AC098
:1015B000F7CF8091D20282FF18C0DD2339F08C2F43
:1015C0008F710E94930C4EC0DD23C9F38C2F8F7155
:1015D0000E94B40C47C0DD2329F08C2F8F710E942C
:1015E0007E0C40C00E94790C3DC0DD2349F0CF71D4
:1015F0008C2F0E94930C63E08C2F0E94351232C016
:1016000081E00E945012023068F182E00E94501284
:1016100029C0DD2331F0002391F2812F0E94EC07D5
:1016200021C0002399F2193349F49FEFE7EEF3E06C
:101630009150E040F040E1F700C00000812F0E948F
:10164000960810C04C2F4F70612FC7010E9446149E
:101650000E94F80D0FC04C2F4F70612FC7010E94E0
:10166000491408C088EF8C0D843020F40E94E11DDD
:101670000E949307DD20C9F00E94A01180FD15C0D3
:10168000F70112820E949A110E94930CC7010E94D6
:10169000760B0E949A11DF91CF911F910F91FF90CD
:1016A000EF90DF90CF900C94B40CDF91CF911F910D
:1016B0000F91FF90EF90DF90CF9008950F931F93BD
:1016C000CF93DF93EC01688179818A810E94D50DE7
:1016D0008C010E94300D0E94210CB801CE010E94A5
:1016E0002C09DF91CF911F910F910895CF93DF9334
:1016F000EC01988189812B813C81232B31F08F3F34
:1017000031F481E09F3F19F403C081E001C080E023
:1017100080FD1DC0CE010E94BA06811110C00E943A
:10172000A4118823A1F08A81882389F08091D202B4
:1017300082FD0DC082E0DF91CF910C945012CE015A
:101740000E945E0BCE01DF91CF910C949006DF9149
:10175000CF910895882321F00E94C1110C940012AA
:101760000895882321F00E94C7110C940012089557
:1017700080E090E00E94181E80E090E00E942E1E03
:101780000E94CE110E94DE110E9400120E9439199F
:101790000C94081880910201909103010E94F01EA0
:1017A0000C94B80B0E94BE110C94CA0BE92FE29561
:1017B000EF704E2F50E0FA013297EE30F105B0F4A1
:1017C000EA59FF4F0C94FB26803F91F018F4883EB5
:1017D00068F40EC0843F51F40BC0883E48F0813F4E
:1017E00029F406C093FB882780F9089580E00895C6
:1017F00081E00895FC01808191810E94CA0D0E94C0
:10180000D60B0895CF93DF9300D000D01F92CDB7B1
:10181000DEB70F900F900F900F900F90DF91CF9148
:101820000895CF93DF9300D000D000D0CDB7DEB7BE
:1018300026960FB6F894DEBF0FBECDBFDF91CF91D5
:101840000895089508950C94220C0C94230C0E9482
:10185000250C60931A0270931B0280931C029093D4
:101860001D020C94B80B0C94270C0F931F9300913E
:101870001A0210911B0220911C0230911D02602B54
:10188000712B822B932B1F910F910C94270C0F938C
:101890001F9300911A0210911B0220911C0230919B
:1018A0001D0260237123822393231F910F910C94B7
:1018B000270C0F931F9300911A0210911B02209185
:1018C0001C0230911D0260277127822793271F91E8
:1018D0000F910C94270C0C94220C0E946B0C6093BB
:1018E00016027093170280931802909319020C94B9
:1018F000B80B60E070E0CB010C946D0C0F931F935C
:1019000041E050E060E070E08A019B0104C0000FFC
:10191000111F221F331F8A95D2F7C901B8011F91E9
:101920000F910C946D0C0F931F9341E050E060E019
:1019300070E004C0440F551F661F771F8A95D2F7C9
:101940008091160290911702A0911802B09119028D
:101950008A019B01082B192B2A2B3B2BC901B801AB
:101960001F910F910C946D0C0F931F9341E050E069
:1019700060E070E004C0440F551F661F771F8A9512
:10198000D2F7409550956095709580911602909190
:101990001702A0911802B09119028A019B01082335
:1019A00019232A233B23C901B8011F910F910C94DD
:1019B0006D0C0F931F9341E050E060E070E004C0B5
:1019C000440F551F661F771F8A95D2F78091160224
:1019D00090911702A0911802B09119028A019B01FF
:1019E000082719272A273B27C901B8011F910F9102
:1019F0000C946D0C0F931F93009116021091170217
:101A00002091180230911902602B712B822B932B9D
:101A10001F910F910C946D0C0F931F930091160260
:101A2000109117022091180230911902602371233E
:101A3000822393231F910F910C946D0C0F931F938E
:101A4000009116021091170220911802309119028C
:101A500060277127822793271F910F910C946D0C9B
:101A600008952EE0929F800D1124E82FE695E695CB
:101A7000E695877051E001C0550F8A95EAF785E039
:101A8000E89FF0011124E152FE4F20E030E070E0C9
:101A90004081CB01022E02C0969587950A94E2F709
:101AA0008170819584278523842781932F5F3F4F01
:101AB0002530310569F708952EE0929F800D11249D
:101AC000682F669566956695982F977085E0689F54
:101AD000B001112440E050E080E0FB01E40FF51F6D
:101AE000E152FE4F208130E0092E02C03695279545
:101AF0000A94E2F721703327042E01C0220F0A94C2
:101B0000EAF7822B4F5F5F4F4530510531F708955B
:101B1000BF92CF92DF92EF92FF920F931F93CF93DA
:101B2000DF938C01C0901602D0901702E09018024B
:101B3000F090190280911A0290911B02A0911C0250
:101B4000B0911D02C82AD92AEA2AFB2ACFE1D0E0A7
:101B5000D701C6010C2E04C0B695A7959795879519
:101B60000A94D2F780FD04C0219790F7B12C07C0EA
:101B7000BC2EB8018C2F0E9481150197A9F38B2DE3
:101B8000DF91CF911F910F91FF90EF90DF90CF9059
:101B9000BF900895CF93DF93EC010E94880DBE01A2
:101BA0000E948115DF91CF9108951F93CF93DF930A
:101BB000EB019091DE01992321F0CB010E94CA0D27
:101BC00013C0882349F0CB010E94880D182F682F7D
:101BD000CE010E94310D04C0CB010E945C0D182F74
:101BE000BE01812F0E948115DF91CF911F91089531
:101BF000EF92FF920F931F93CF93DF938C01892B6A
:101C000009F46CC0F12CEE24E394E8012196F8016C
:101C10008491843740F4843008F051C0813081F0E1
:101C2000823019F15BC0853709F444C0A8F19CE704
:101C3000980F903708F052C08F770E94960841C0E5
:101C40000E5F1F4FFE01849190E2980F983050F480
:101C50008770FE2D01C0FF0F8A95EAF78F2F0E9433
:101C6000D11114C00E94EC072DC00E5F1F4FFE0162
:101C7000849190E2980F983060F48770FE2D01C037
:101C8000FF0F8A95EAF78F2F0E94D7110E9400124A
:101C900019C00E94960816C00E5F1F4FFE01C49126
:101CA000CC2381F08FE99FE00197F1F700C000009D
:101CB000C150F6CF0E5F1F4FFE01F49003C00E948B
:101CC000EC078E018F2D882309F49FCFEFE9FFE009
:101CD0003197F1F700C000008150F5CFDF91CF912F
:101CE0001F910F91FF90EF9008951F93CF93DF9373
:101CF000C0911E0216E080911F02C81799F0D0E033
:101D00001C9FF0011D9FF00D1124E05EFD4F4081EE
:101D1000518162817381848195810E94110C219689
:101D2000C770E9CFDF91CF911F9108954091500284
:101D3000509151026091520270915302809154026D
:101D4000909155020C94110CEF92FF920F931F93F8
:101D5000CF93DF938091550282958F7009F065C013
:101D600080915202882309F460C080911E02F09095
:101D70001F02109150020091510260915302709124
:101D8000540291E01F3F09F090E0C0910001D09112
:101D90000101292F96E0E92E8F1509F446C061153F
:101DA000710521F00F3F21F030E003C031E001C0A8
:101DB000322F90E030FD36C0E89EF001E99EF00D34
:101DC0001124DF01A05EBD4F11963C911197301395
:101DD00029C03C91311326C012963C9112973111C3
:101DE00021C013964D915C911497461B570B4C17CD
:101DF0005D07C0F4809155028F7080618093550219
:101E0000EB5DFD4F80818F708061808380E592E083
:101E10000E94760BDF91CF911F910F91FF90EF9071
:101E20000C94750E01968770B7CFDF91CF911F91FB
:101E30000F91FF90EF9008959F92AF92BF92CF9233
:101E4000DF92EF92FF920F931F93CF93DF93CDB763
:101E5000DEB761970FB6F894DEBF0FBECDBF8C0121
:101E600085E0F801DE011D9601900D928A95E1F75B
:101E7000D8011296EC9090915002E091510220917D
:101E80005302309154022115310531F0EF3F31F406
:101E900081E09F3F19F403C081E001C080E0B82FCA
:101EA000B1709B2E80FD47C1D8014C9111965C9179
:101EB00011971396AD90BC90149780E5C82E82E0E0
:101EC000D82EF0905202B501621B730B20910001D5
:101ED00030910101FF2009F4D9C0809155026217A9
:101EE000730708F095C0282F207F09F052C05E13B9
:101EF00013C0491311C0FE2CE1100EC08F70806119
:101F0000809355020E94960EC6010E94760B809126
:101F10005502F80185834DC1AB2831F05F3F31F4A4
:101F200081E04F3F19F403C081E001C080E080FDF3
:101F300003C081E08E2502C080E090E0F82FF170B0
:101F4000FF2E80FF1CC080911E0220911F0236E0F0
:101F5000821709F40BC190E0389FF001399FF00D12
:101F60001124E05EFD4F6181561306C06081461367
:101F700003C06281E61203C001968770E9CFFE2C90
:101F8000EE2009F416C180915502816080935502BC
:101F900054C05E1306C0491304C0E11002C0F8012A
:101FA00099C0C8010E94FA0B882361F1EE2051F11B
:101FB00020915502822F82958F7090E0029774F0E5
:101FC000809150029091510298878F831986BB8629
:101FD000AA862C87CE0107960E94760B86E0F80130
:101FE000A0E5B2E001900D928A95E1F70E94A40E5F
:101FF0000E94960E0AC05E1711F1C8010E94FA0BEA
:1020000081112CC0C8010E94760BFF24F394D1C02B
:10201000282F207F81F77A2DB98AA88A6E2D898989
:102020000E94020C80E592E00E94760B86E0D601C9
:102030001D928A95E9F70E94960EF12CBAC04913B9
:10204000DCCFE110DACFF8018583C8010E94760B5E
:1020500086E0D6011D928A95E9F7ABC0EE2091F299
:1020600020915502822F82958F7090E002970CF498
:10207000B5CF80915002909151029A8389831B823F
:10208000BD82AC822E83CE010196A6CF6217730764
:1020900008F044C0FE2CEE2009F4B4CF5E1330C02B
:1020A00049132EC02091550220FD21C0822F829518
:1020B0008F70482F50E041155105C9F0F801258374
:1020C0004F30510541F08F5F982F9295907F822F6E
:1020D0008F70892B8583C8010E94760B86E0F801FA
:1020E000A0E5B2E001900D928A95E1F73CC086E050
:1020F000F801A0E5B2E001900D928A95E1F759C090
:10210000C8010E94FA0B811169CF8091550281604C
:1021100080935502C8010E94760B4BC07A2DB98A74
:10212000A88A6E2D89890E94020C86E0D6011D9234
:102130008A95E9F718C0EE2009F464CFC8010E941F
:10214000FA0BF82E882309F45DCF86E0F801A0E5AC
:10215000B2E001900D928A95E1F780E592E00E944D
:10216000E6070E94A40E0E94960E23C04D875E874C
:102170008D859E850E94CA0D292F22952F702230B1
:1021800028F49F7039F0811105C00BC0243028F469
:102190009F7049F4805E883020F0C8010E94760B61
:1021A0009F2CF92C06C0D80115969C91907F91F731
:1021B000F8CF8F2D61960FB6F894DEBF0FBECDBF5E
:1021C000DF91CF911F910F91FF90EF90DF90CF9013
:1021D000BF90AF909F9008951F93CF93DF93CDB79B
:1021E000DEB72C970FB6F894DEBF0FBECDBF4F837E
:1021F000588769877A878B879C87CE0107960E94CC
:102200001C0F8823D1F09F8188852A853B85232B4D
:1022100031F08F3F31F481E09F3F19F403C081E03A
:1022200001C080E080FD47C04F81588569857A856F
:102230008B859C850E94110C3EC086E0FE0137967E
:10224000DE01119601900D928A95E1F7FF81E885F4
:102250006A857B856115710531F0EF3F31F481E0CE
:10226000FF3F19F403C081E001C080E080FD23C07E
:1022700020911F0230E0C901019687709927409193
:102280001E0250E084179507F1F1F983EA837D83FC
:102290006C8396E0929FD001939FB00D1124A05EB5
:1022A000BD4FFE01319601900D929A95E1F7809312
:1022B0001F020E94750E16E080911E0290911F026F
:1022C000891771F1189FC0011124805E9D4F0E94F3
:1022D0001C0F882329F1E0911E021E9FF00111249A
:1022E000E05EFD4F408151816281738184819581DF
:1022F0000E94110C80911E0290E001968770992730
:1023000080931E02D9CF0E94D20B10921F0210920E
:102310001E02E0E5F2E086E0DF011D928A95E9F712
:102320002C960FB6F894DEBF0FBECDBFDF91CF91D4
:102330001F910895809156028595859585950895FC
:10234000809156028770089590915602977081E0AF
:1023500009F480E0089580917A02089590917A02BC
:10236000892B80937A020895809590917A0289232F
:1023700080937A02089580937A02089510927A02E7
:10238000089590917902892B809379020895809520
:1023900090917902892380937902089510927902AD
:1023A000089590917802892B809378020895809502
:1023B0009091780289238093780208951092780290
:1023C000089580915702089508950C94E4110C9497
:1023D000E5119091D20292FD08C090915702981792
:1023E00021F0809357020C94E711089580915702D1
:1023F000882329F01092570280E00C94E711089589
:10240000E0910201F091030180917A028083E091D2
:102410000201F0910301908180917902892B8083E0
:10242000E0910201F0910301908180917802892B63
:10243000808380915702882381F0E0910201F0911E
:1024400003019081892B8083809102019091030187
:102450000E94441E81110E94F61180910201909108
:1024600003010C94F01D0C94E4119091D20292FDA2
:1024700010C098E0899F90011124262B20935602CA
:102480000E94930C809156028595859585950C94B4
:1024900033120C94930C1092560280E00C94331279
:1024A000209156028095822380935602982F977030
:1024B00099F430E0482F082E000C550B24173507EF
:1024C00059F09091D20292FD07C08595859585952A
:1024D0000E94B40C0C944B1208959091D20292FB7E
:1024E000222720F9281769F080FB92F99093D202F5
:1024F0008091D1029091D2020E94BB1282E00C9492
:10250000501208958091D20282FB882780F991E0D1
:1025100089270C946D1281E00C946D1280E00C946C
:102520006D126FEF7FEF80E090E00C942D2780E03C
:1025300090E00E94092721E0893E9E4F09F020E0AB
:10254000822F089582E090E00C94012783E090E0D0
:102550000C940127CF9384E090E00E940127C82FBC
:1025600082E290E00E9401272C2F30E0A901582B35
:10257000CA01CF910895CF93C92F682F84E090E0CE
:102580000E940F276C2F82E290E0CF910C940F27CE
:10259000AB01BC018FE090E00C942127AB01BC01A2
:1025A00083E190E00C94212760E070E0CB010C9473
:1025B000CE1260E070E0CB010E94C8120C94D412DD
:1025C00069EE7EEF80E090E00E942D2760E082E0DF
:1025D00090E00E940F2760E083E090E00E940F27C8
:1025E00010921A0210921B0210921C0210921D02ED
:1025F00060E084E090E00E940F2760E082E290E0DB
:102600000E940F2760E085E090E00E940F2760E0C5
:1026100086E090E00E940F276FEF87E090E00E9435
:102620000F2740E050E0BA0188E090E00E942127A7
:1026300060E08DE090E00E940F2740E050E0BA019A
:1026400088E190E00E94212760E087E190E00E940D
:102650000F2740E050E0BA018CE190E00E94212772
:1026600060E070E080E290E00E942D2740E050E0C2
:10267000BA0188E190E00E9421270C94D9120C94B1
:10268000E012682F8EE090E00C940F270E94A01FAC
:1026900060938C0270938D0280938E0290938F02D0
:1026A000609388027093890280938A0290938B02D0
:1026B000089585B7806885BF85B7806885BF089510
:1026C00081E008950C94601308950C9464130C94A5
:1026D00064130C9467130C9464130C946B130C9494
:1026E00064130E9459138DE596E10E94D71D0E9444
:1026F0006F130C946D130E9465130C9464130E9465
:102700008B1F0E949C03E1EDF2E080818068808352
:102710008091D1029091D2020E94BB120C94691355
:102720006F927F928F929F92AF92BF92CF92DF92E1
:10273000EF92FF920F931F93CF93DF93CDB7DEB746
:102740002A970FB6F894DEBF0FBECDBF0E940B04D0
:1027500081110E9446133CE7832E32E0932E00E065
:1027600010E0C02E802F0E94C0045C01F401619033
:1027700071904F016826792661147104B1F40F5FDE
:102780001F4F0630110569F78FEF89838A831B82FB
:102790000E94941F8160782F9D838C8349815A8188
:1027A0006B818D810E949C073AC08091900281FDCF
:1027B0000E94C904D12CEE24E394F12CC3018E2194
:1027C0009F21892B29F10E9462138823A9F0DE82C0
:1027D000CF82AE20BF2081E0AB2809F480E088875B
:1027E0000E94941F8160782F9A8789874E815F812C
:1027F00068858A850E949C07000F111FF801E45824
:10280000FD4F80819181E826F926F182E08207C0A0
:10281000D394EE0CFF1CFEE0DF12D0CFB0CF0E94AD
:1028200026180E94E11D90917B028917D1F00E9429
:10283000E11D80937B022A960FB6F894DEBF0FBE8F
:10284000CDBFDF91CF911F910F91FF90EF90DF905F
:10285000CF90BF90AF909F908F907F906F900C948F
:1028600093072A960FB6F894DEBF0FBECDBFDF9157
:10287000CF911F910F91FF90EF90DF90CF90BF907D
:10288000AF909F908F907F906F90089580E090E040
:102890000895089524E5829FC0011124FC012EE0D3
:1028A000729FE00DF11D1124E60FF11DEE0FFF1FC9
:1028B000E450FF4F859194910895880F991FFC0172
:1028C000EC50FB4F859194910895CF93DF930E9434
:1028D0008615EC01811520E5920708F03FC08115AF
:1028E00040E4940708F0D2C0883E910500F5803E90
:1028F000910508F002C1883A910570F4853A910576
:1029000008F0A6C08130910509F49FC008F4F2C018
:10291000049708F0F2C0EEC08F3B910508F4A1C007
:10292000803C910508F4E6C0805C9109A5C0811542
:1029300050E2950760F4C11581E0D80708F0DDC0CA
:10294000CD3ED10508F4D6C0CE019065D7C0811523
:1029500020E3920708F093C09F708EC0811545E573
:10296000940708F046C0811554E5950708F0A6C005
:10297000C11582E5D80718F5C11521E5D20708F081
:1029800088C0CE01F4E096958795FA95E1F7282F57
:1029900023703C2F337081E090E002C0880F991FB4
:1029A0003A95E2F79C68922B2C2F2F70269526954E
:1029B00040E2249F90011124822B932B9FC09E0103
:1029C000237033279C2F96959695C115D34508F013
:1029D00065C041E050E002C0440F551F2A95E2F760
:1029E00080E2989F90011124CA01822B932B9C684E
:1029F00085C0811559E5950798F4C11588E5D80774
:102A000008F061C0C11526E5D20708F073C08C2F0D
:102A10000E941A168F7190E0982F882790626EC0DE
:102A200081154AE5940708F453C0905681159042E9
:102A300008F060C08D2F8F710E941A169E013327F7
:102A400030628F71A901582B53C081E090E056C0CD
:102A5000855AC82FD0E0CA58DE4F888190E0906434
:102A60004DC0885AC82FD0E0CC0FDD1FC85BDE4FA9
:102A700088819981946442C00E945D143FC0992767
:102A8000D3FF02C0986C3AC0906C38C09F70906AB7
:102A900035C09C2F8827816F906A30C041E050E09C
:102AA00002C0440F551F2A95E2F780E2989F9001DB
:102AB0001124CA01822B932B9A6820C0982F882753
:102AC000846F906A1BC09C2F8827806F906A16C005
:102AD0008F700E941A169E0194E0369527959A955C
:102AE000E1F72F7030E0322F22273069A901482BFF
:102AF000CA0104C080E090E001C0CE01DF91CF9117
:102B000008950E944A140E94651408958238910520
:102B100069F1B0F48133910509F46DC048F489324C
:102B2000910509F463C08A32910509F469C00895DA
:102B30008533910509F455C089339105B9F008959D
:102B4000833E910569F138F4803E9105B1F0823EF3
:102B5000910509F10895863E9105A9F1873E9105F9
:102B6000B9F1843E910509F064C023C02091D102DF
:102B700020FD4FC021FD4DC008958091D10280FD00
:102B800044C08091D20280FF44C08091D10284FD74
:102B900042C083EE4DC08091D10282FF38C0F5CF94
:102BA0008091D10282FD33C08091D20280FD31C07C
:102BB000ECCF8091D20281FF32C08091D10284FD9E
:102BC0002AC087EE35C08091D10283FF26C0F5CFA1
:102BD0008091D10283FD21C08091D20281FD1FC06E
:102BE000ECCF8091D10285FD1CC01DC08091D10227
:102BF00085FD19C016C08091D10286FD16C017C090
:102C00008091D10286FD13C010C089E311C082EE0D
:102C10000FC080EE0DC080E00BC086EE09C084EED0
:102C200007C089E205C085E303C08AE201C081E3F1
:102C300090E008959091D10292FF0DC0282F287145
:102C4000283019F4877F846006C0282F247124302F
:102C500011F48B7F886093FF0DC0282F28712831D5
:102C600019F4877E846106C0282F2471243111F461
:102C70008B7E88612091D20220FF0DC0382F3871E1
:102C8000383019F4877F816006C0382F31713130B8
:102C900011F48E7F886021FF0DC0282F2871283104
:102CA00019F4877E816106C0282F2171213111F42A
:102CB0008E7E886194FD877E089580E008950C944F
:102CC00091120E940B048FE39CE90197F1F700C079
:102CD00000000E940B0480E00E94C00480FF04C03A
:102CE0000E945F160C94E11F08950C9461160E94D7
:102CF0009712811102C00E943F130E94A21280937A
:102D000090020E94AA129093D2028093D1020E9454
:102D100075160E94A612682F70E080E090E00E9475
:102D2000330C6091160270911702809118029091F5
:102D300019020C946B0C0E9499210E947F130C9431
:102D4000A5210E94A9210E9490130C94C3210E94E6
:102D50001C1F0E9480210E9471130E949B160E94DA
:102D6000A1160E947B13FBCF8091990280FF0BC0BC
:102D70006091080185E0689FB00111247595679501
:102D8000759567952BC081FF09C06091080185E0AA
:102D9000689FB00111247595679520C082FF07C018
:102DA0006091080185E0689FB001112417C09091DF
:102DB00098029923D1F060910701961788F7209126
:102DC000080185E0289F90011124929FA001939F04
:102DD000500D112470E0CA010E94E7266038710589
:102DE00040F46115710519F406C065E070E0862FA6
:102DF00008958FE7089581E008958091990280FFFA
:102E000008C06091050170E07595679575956795A7
:102E100021C081FF06C06091050170E0759567953E
:102E200019C082FF04C06091050170E010C090914C
:102E30009702992399F0609104019617A0F7809169
:102E40000501899FC001112470E00E94E7266038C7
:102E5000710540F46115710519F406C061E070E078
:102E6000862F08958FE7089581E008958D3E21F41F
:102E70000E94B416819504C08E3E29F40E94B416B7
:102E800080939D0208958F3E21F40E94B41681958F
:102E900004C0803F29F40E94B41680939C020895D8
:102EA000893F19F40E94FD1605C08A3F31F40E9443
:102EB000FD16819580939E0208958B3F21F40E9418
:102EC000FD16819504C08C3F29F40E94FD16809365
:102ED0009F0208959FE0980F983078F421E030E049
:102EE000A90102C0440F551F9A95E2F7CA019091BB
:102EF0009B02892B80939B0208958D3F21F4809142
:102F0000990281600BC08E3F21F48091990282600A
:102F100005C08F3F29F480919902846080939902C3
:102F200008958D3E39F490919D0297FF35C010921F
:102F30009D0259C08E3E29F490919D021916BCF352
:102F40002BC090919C028F3E29F497FF25C01092D0
:102F50009C0249C0803F19F41916CCF31DC0909112
:102F60009E02893F29F41916BCF410929E023BC0C0
:102F70008A3F19F497FF10C0F8CF8B3F39F4909136
:102F80009F0297FF09C010929F022DC08C3F21F431
:102F900090919F021916BCF39FE0980F983080F42F
:102FA00021E030E0A90102C0440F551F9A95E2F7D5
:102FB000CA01809590919B02892380939B0213C044
:102FC0008D3F21F4809199028E7F0BC08E3F21F4BA
:102FD000809199028D7F05C08F3F29F480919902DD
:102FE0008B7F8093990280919C02811106C0809111
:102FF0009D02811102C01092980280919E0281115F
:1030000006C080919F02811102C01092970208951C
:103010000E94941F20919C02211104C020919D02C6
:10302000222321F0909396028093950220919E0294
:10303000211104C020919F02222321F09093940239
:10304000809393028AE992E00C940A1EEF92FF9219
:103050000F931F93CF93DF9300D000D000D0CDB754
:10306000DEB786E0EAE9F2E0DE01119601900D920A
:103070008A95E1F7E0909C02F0909D0200919E02FB
:1030800010919F0210929C0210929D0210929E023B
:1030900010929F02E11003C0FF2009F45DC08091EF
:1030A0009502909196020E94AC1FAC0190919802FB
:1030B000992339F02091090130E02417350758F0A1
:1030C0004BC0209192028AE0289F9001112424177E
:1030D000350718F041C09F3F19F09F5F9093980209
:1030E000EE2061F00E94B4161E1414F09FEF01C090
:1030F00091E0989F902D112490939C02FF2061F005
:103100000E94B4161F1414F09FEF01C091E0989F25
:10311000902D112490939D0230919C023323E1F075
:1031200020919D022223C1F045EB3403C0011124FC
:10313000992319F090939C0203C081E080939C0234
:1031400035EB2303C0011124992319F090939D02BC
:1031500003C081E080939D02011103C0112309F493
:103160005DC080919302909194020E94AC1FAC01CB
:1031700090919702992339F02091060130E02417AD
:10318000350758F04BC0209191028AE0289F9001AA
:1031900011242417350718F041C09F3F19F09F5F95
:1031A00090939702002361F00E94FD16101614F010
:1031B0009FEF01C091E0989F902D112490939E0263
:1031C000112361F00E94FD16111614F09FEF01C04B
:1031D00091E0989F902D112490939F0230919E0230
:1031E0003323E1F020919F022223C1F045EB340309
:1031F000C0011124992319F090939E0203C081E02D
:1032000080939E0235EB2303C0011124992319F00A
:1032100090939F0203C081E080939F0280919C0263
:1032200081110BC080919D02811107C080919E0287
:10323000811103C080919F0281110E940818EB82C6
:10324000FC820D831E8386E0FE013196AAE9B2E07E
:1032500001900D928A95E1F726960FB6F894DEBF9D
:103260000FBECDBFDF91CF911F910F91FF90EF90D7
:103270000895EAE9F2E086E0DF011D928A95E9F718
:103280001092980210929702109299020895CF938B
:10329000DF9397FF0DC0FB012281222349F0EC014F
:1032A0000E948519CE019F770E94F8190E94D219B9
:1032B00081E0DF91CF9108959091D402923069F42A
:1032C0008A3040F490E009966AE070E00E94E726B8
:1032D000875A01C086500C9415090C9481078CE024
:1032E00090E00E94012790E0A0E0B0E08093D4023B
:1032F0009093D502A093D602B093D702089560911F
:10330000D4028CE090E00C940F270E94ED1D86956E
:1033100081708093D9020E94ED1D81708093D30249
:103320008091D402813039F48091D902882319F038
:1033300089E30E9415090E94AB118093D8020E9474
:10334000BE118091D402813071F048F0823081F05A
:10335000843009F586EE0E94150988E11AC082EED4
:103360000E94EC0718C088E193E00E943F0613C05A
:103370008091D302811103C083E50E94150982EE7A
:103380000E94EC078FE39CE90197F1F700C0000071
:1033900087E50E9415098FE39CE90197F1F700C0CA
:1033A000000008958091D402813059F030F08230CD
:1033B00089F08430C9F488E215C082EE0E94960834
:1033C00013C08CE20E9415098091D902882361F014
:1033D00089E308C082EE0E9496088091D302811191
:1033E00003C083E50E9415098091D8020C94BB119B
:1033F0000F931F93CF93DF938C01CCE0D0E0C801F3
:103400000C2E02C0969587950A94E2F78F700E9461
:103410005C192497CC3F8FEFD80789F7DF91CF91C4
:103420001F910F9108950F931F93CF93DF93EC019A
:103430008B01FB018281882361F00E94AB11CE01D8
:10344000825E9C458530910520F48093D4020E94D1
:103450007F19B801CE01DF91CF911F910F910C948C
:103460004719CF93DF93EC01FB018281882309F494
:1034700026C1C430FDE5DF0760F4CB3F9CE5D907EA
:1034800068F49E0122503C452431310508F018C1F2
:1034900005C0C236EDE5DE0709F012C10E94AA128E
:1034A0009093D2028093D102C031FCE5DF0709F48A
:1034B000CAC008F041C0C8309CE5D90709F4A4C0CF
:1034C000F0F4C430FCE5DF0709F48CC068F4C230C6
:1034D0009CE5D90709F482C0C330DC4509F0E5C09A
:1034E0008091D1028260DFC0C630FCE5DF0709F4BD
:1034F00083C008F085C08091D1028860D4C0CC30F0
:103500009CE5D90709F490C068F4CA30FCE5DF07F0
:1035100009F47EC008F084C00E94D20B8091D102D1
:103520008068C1C0CE309CE5D90709F481C008F09D
:1035300086C08091D10294C0CD3FFCE5DF0709F43D
:103540007BC038F5C4319CE5D90709F49AC058F41A
:10355000C231FCE5DF0709F47AC008F07EC0809133
:10356000D1028F7BA0C0CB3F9CE5D907F1F108F0D9
:103570003FC0C531DC4509F098C08091D10282FB83
:10358000222720F991E0922790FB82F990FB83F9A2
:103590008AC0C1308DE5D80709F467C050F4809126
:1035A000D202CF3FECE5DE07C1F108F05BC08D7FB2
:1035B00065C0C3308DE5D80709F471C008F46DC04B
:1035C000C236DD4509F071C08091D10284FB22270B
:1035D00020F991E0922790FB84F965C08091D10297
:1035E000816061C08091D10216C08091D20216C064
:1035F0008091D202826042C08091D102806153C02A
:103600008091D10280624FC08091D10280644BC012
:103610008091D1028860846046C0826081602EC043
:103620008091D1028E7F3FC08091D1028D7F3BC0BF
:103630008091D102877F37C08091D20214C08091DF
:10364000D1028F7E30C08091D1028F7D2CC00E942C
:10365000D20B8091D1028F7726C08091D102877FD3
:103660008B7F21C08D7F8E7F09C08091D202982FE1
:10367000909591708E7F892B90FB81F98093D20277
:1036800014C00E94D20B8091D10287FB222720F91F
:1036900091E0922790FB87F906C081E001C080E0AD
:1036A0000E94411302C08093D1028091D102909177
:1036B000D2020E94BB120E94D20B80E001C081E0C6
:1036C000DF91CF910895CF93DF9386319C4541F5EB
:1036D000EB010E94AB11982F8A8120910201309159
:1036E0000301882379F09A7A81E009F480E08093DD
:1036F000A002911102C069E201C065E3C9010E9404
:10370000DA1E0AC08091A002811102C069E201C0E4
:1037100065E3C9010E94E51E0E94001280E001C01D
:1037200081E0DF91CF9108950F931F93CF93DF93A3
:10373000C42FD22FFC0182818823C9F04093A302B9
:103740000E94941F9093A2028093A10280E28C0FAA
:10375000883008F057C0C77081E001C0880FCA9553
:10376000EAF7DF91CF911F910F910C941E09809180
:10377000A302481330C08091A1029091A2020E943E
:10378000AC1F883C910538F510E21D0FCD17B9F03C
:1037900080E28C0F883040F4C77081E001C0880F50
:1037A000CA95EAF70E942509183028F581E09D2F77
:1037B000977001C0880F9A95EAF70E941E09802F22
:1037C0000E9415091830F0F4D77081E001C0880F0D
:1037D000DA95EAF70AC080E28C0F883098F4C77057
:1037E00081E001C0880FCA95EAF7DF91CF911F9160
:1037F0000F910C942509802FDF91CF911F910F918C
:103800000C941509DF91CF911F910F9108950F939B
:103810009C01CB01243F4CE5340731F188F4293D6C
:10382000FCE53F07D9F02A3D4CE5340779F1283D06
:103830003C45A9F506E221EE41EE68ED7CE52BC0A2
:10384000263FFCE53F07E1F0A8F0273F3C4539F56E
:1038500007E225EE46EE67EF7CE51DC007E225EEA8
:1038600045EE69ED7CE517C006E221EE40EE64EF1F
:103870007CE511C007E225EE44EE65EF7CE50BC068
:1038800006E221EE42EE66EF7CE505C008E221E0AB
:1038900045EE6AED7CE50E94941B80E008C0FC01C7
:1038A0008281882319F01092A30201C081E00F9158
:1038B00008951092B9008CE08093B80008959F920B
:1038C000AF92BF92CF92DF92EF92FF920F931F932E
:1038D000CF93DF93B82EEB010E94941F6C01C4318B
:1038E000D10558F0CF3F8FEFD80759F0CE0164E1F2
:1038F00070E00E94D3267B0107C0EE24E394F12CF4
:1039000003C025E0E22EF12C84E8A82E94EA992E3B
:103910001092BC009092BC000E94941F8C01809178
:10392000BC0087FD08C00E94941F801B910B8E1560
:103930009F05A8F32AC08091B900887F883041F0A4
:103940008091B900887F803119F00FEF1FEF1FC001
:10395000B092BB00A092BC000E94941F8C01809189
:10396000BC0087FD08C00E94941F801B910B8E1520
:103970009F05A8F30AC08091B900887F883111F0B3
:10398000803419F700E010E00EC00EEF1FEFCF3FBC
:103990008FEFD80709F4BCCFC6010E94AC1F8C176B
:1039A0009D0708F4B5CFC801DF91CF911F910F910A
:1039B000FF90EF90DF90CF90BF90AF909F900895D1
:1039C0000F931F93CF93DF93EB018093BB0084E8A9
:1039D0008093BC000E94941F8C018091BC0087FDE5
:1039E0000EC0CF3F8FEFD807C1F30E94941F801BFA
:1039F000910B8C179D0788F38EEF9FEF0CC02091E1
:103A0000B900287F81E090E0283211F480E090E056
:103A1000919581959109DF91CF911F910F91089513
:103A20000F931F93CF93DF93EC0184EC8093BC0042
:103A30000E94941F8C018091BC0087FD0EC0CF3F77
:103A40008FEFD807C1F30E94941F801B910B8C1736
:103A50009D0788F38EEF9FEF03C08091BB0090E03D
:103A6000DF91CF911F910F9108950F931F93CF93E3
:103A7000DF93EC0184E88093BC000E94941F8C01CA
:103A80008091BC0087FD0EC0CF3F8FEFD807C1F3F8
:103A90000E94941F801B910B8C179D0788F38EEF5B
:103AA0009FEF03C08091BB0090E0DF91CF911F9109
:103AB0000F910895CF92DF92EF92FF920F931F9391
:103AC000CF93DF93C62F6A017901B8010E945F1C72
:103AD00097FD11C0B8018C2F0E94E01CE601EC0C90
:103AE000FD1CCE15DF0539F097FD05C0B8018991A1
:103AF0000E94E01CF6CF24E92093BC00DF91CF9117
:103B00001F910F91FF90EF90DF90CF900895CF928B
:103B1000DF92EF92FF920F931F93CF93DF93D82EF4
:103B2000C62E7A01E901B8010E945F1C97FD2AC0E8
:103B3000B8018C2D0E94E01C97FD24C0B8018D2D8A
:103B400081600E945F1C6701219796012E193F0931
:103B50002C173D0768F497FD15C0C8010E94101D81
:103B600097FD02C0F6018083FFEFCF1ADF0AEDCF89
:103B700097FD08C0C8010E94351D97FD03C0CE0DFA
:103B8000DF1D888324E92093BC001816190614F45D
:103B900080E090E0DF91CF911F910F91FF90EF9027
:103BA000DF90CF90089584E98093BC0008959093AE
:103BB0007B0180937A0108959093A9028093A802D3
:103BC0000895E091A802F091A902309721F00190A8
:103BD000F081E02D099480E008950E94E11D089590
:103BE000E091A802F091A902309799F02091160176
:103BF000222359F02091D10227FF07C0DC012C912C
:103C000011962C93119726E02C930280F381E02DDE
:103C100009940895E091A802F091A902309739F033
:103C200022E0DC012C930480F581E02D09940895B5
:103C30002091A6023091A7022817390771F09093BE
:103C4000A7028093A602E091A802F091A902309702
:103C500021F00680F781E02D099408952091A402B7
:103C60003091A5022817390771F09093A50280932F
:103C7000A402E091A802F091A902309721F00084FB
:103C8000F185E02D09940895FC013296809116018A
:103C9000882331F08091D10287FF02C09EE101C0EC
:103CA00096E080E0915028F021912223D9F38F5F94
:103CB000F9CF0895662351F1209116012223E9F0EE
:103CC0002091D10227FF19C0462F4695469546956B
:103CD0004E31E0F4677021E030E002C0220F331F64
:103CE0006A95E2F7FC01E40FF11D828190E0282340
:103CF000392381E0232B69F409C0FC013296089630
:103D00002191621729F0E817F907D1F780E00895AB
:103D100081E008959C01FC0132969FEF80E0419183
:103D2000461789F09F3F19F4411101C0982F8F5F0A
:103D30008630A9F79F3F39F0F901E90FF11D97FD92
:103D4000FA956283089508959C012A5F3F4FFC0114
:103D50004281461301C01282019682179307B9F778
:103D60000895262F2695269526952E3168F4FC0178
:103D7000E20FF11D677021E030E001C0220F6A956B
:103D8000EAF78281282B22830895262F26952695EF
:103D900026952E3170F4FC01E20FF11D677021E0D1
:103DA00030E001C0220F6A95EAF72095828128232E
:103DB0002283089520911601222329F02091D10217
:103DC00027FD0C94B11E0C948A1E2091160122230B
:103DD00029F02091D10227FD0C94C51E0C94A41E3D
:103DE00020911601FC013296222331F08091D102FC
:103DF00087FF02C08EE101C086E0DF011D928A9537
:103E0000E9F7089508950C94021F83E08093AA02B5
:103E10000C94031F811102C081E001C082E08093F5
:103E2000AA020C94031F0C940A1F81E08093AA023B
:103E30000C94031F0C94151F08958091E2028430A6
:103E400031F10E94A5061092AB0220E488E190E0D7
:103E50000FB6F894A895809360000FBE2093600081
:103E600083B7817F846083BF83B7816083BF789489
:103E7000889583B78E7F83BF0FB6F894A8958091FD
:103E80006000886180936000109260000FBE08950A
:103E90000895CF930E94B2030E940B040E94481F12
:103EA000C0E08C2F0E94C004892B29F4CF5FC6305C
:103EB000C1F780E001C081E0CF9108950E94D20B4C
:103EC0000C9415071F920F920FB60F9211248F9327
:103ED0009F93AF93BF938091AB02811113C08091E8
:103EE000DA029091DB02A091DC02B091DD024196F2
:103EF000A11DB11D8093DA029093DB02A093DC0236
:103F0000B093DD02BF91AF919F918F910F900FBE43
:103F10000F901F90189582E084BD93E095BD9AEFB5
:103F200097BD80936E0008952FB7F8948091DA02C0
:103F30009091DB02A091DC02B091DD022FBF0895C9
:103F40002FB7F8946091DA027091DB028091DC0265
:103F50009091DD022FBF08959C014FB7F894809196
:103F6000DA029091DB02A091DC02B091DD024FBF3A
:103F7000821B930B089578941F920F920FB60F92A5
:103F800011248F939F93AF93BF938091DA02909106
:103F9000DB02A091DC02B091DD020196A11DB11DF2
:103FA0008093DA029093DB02A093DC02B093DD02EF
:103FB000BF91AF919F918F910F900FBE0F901F9067
:103FC000189587E797E790930108809300089AE097
:103FD00088E10FB6F894A895809360000FBE909387
:103FE0006000FFCF8091CF020895089522E02093D2
:103FF000E9002FEF3091E800215035FD06C035ED86
:104000003A95F1F700002111F5CF2091E80025FF46
:104010000BC040E050E066E070E00E9435228091E5
:10402000E8008E778093E8000895CF93DF93209186
:104030001601222339F02091D10227FF03C060E24C
:1040400022E002C068E021E02093E9002FEF3091E8
:10405000E800215035FD06C035ED3A95F1F7000036
:104060002111F5CF2091E80025FF1DC0EC018091C2
:104070001601811105C040E050E068E070E003C027
:1040800070E040E050E0CE010E9435228091E800CF
:104090008E778093E80080E2FE01AFEAB2E0019003
:1040A0000D928A95E1F7DF91CF9108958093AC024C
:1040B0007093AE026093AD028091E202843001F50C
:1040C00082E08093E9008FEF9091E800815095FDA8
:1040D00006C095ED9A95F1F700008111F5CF80911A
:1040E000E80085FF0DC040E050E063E070E08CEA3E
:1040F00092E00E9435228091E8008E778093E8005C
:104100000895BC0184E00C945620BC0183E00C941B
:1041100056208091E102811109C00E94C6230E94AD
:1041200023248091E20084608093E200089510923D
:10413000E10208950C941A1F6091DE0281E0611182
:1041400001C080E00C94051F9091E20281E0943060
:1041500009F080E06091DE020C940A1F42E061ECFD
:1041600081E00E943F2342E261EC82E00E943F2313
:104170009091E20281E0943009F080E06091DE02EB
:104180000C94131F8091E402833009F461C030F471
:10419000813071F0823009F49AC008958A3009F4B0
:1041A00086C08B3009F46CC0893009F0A8C020C0EB
:1041B0008091E302813A09F0A2C08091E800877FF4
:1041C0008093E8008091E7029091E802892B21F426
:1041D00060E28FEA92E003C060E080E090E070E08F
:1041E0000E9480228091E8008B778093E8000895F8
:1041F0008091E302813209F082C08091E7029091C0
:10420000E802029708F07BC08091E800877F8093E6
:10421000E8008091E80082FD05C08091E2028111F2
:10422000F8CF6DC02091F3008091F20090E0922BC6
:10423000029731F48091F100813011F0863021F441
:104240008091F1008093CF028091E8008B7753C07A
:104250008091E302813A09F052C08091E702909187
:10426000E802892B09F04BC08091E800877F80939A
:10427000E8008091E80080FFFCCF8091160136C0F5
:104280008091E3028132D9F58091E7029091E802B2
:10429000892BA9F58091E800877F8093E8000E9430
:1042A00074238091E502809316010C94D20B8091C7
:1042B000E302813221F58091E800877F8093E80056
:1042C0000E9474238091E6028093D0020895809129
:1042D000E302813AA1F48091E800877F8093E800AF
:1042E0008091E80080FFFCCF8091D0028093F100A4
:1042F0008091E8008E778093E8000C9474230895F1
:1043000084B7877F84BF0FB6F894A895809160002A
:10431000886180936000109260000FBE90E080E89A
:104320000FB6F89480936100909361000FBE0C94D7
:10433000151F0E94C6230E942324E2EEF0E0808134
:104340008460808378940C94B8268AE091E00C9481
:10435000DC1D8091E2028530A9F48091E202853073
:1043600079F40E941D1F8091E0028823B1F30E941E
:10437000491F882391F30E941F220E94D20BEDCF88
:104380000C945E1F089508950C94C621292F33279D
:1043900023303105C9F060F42130310581F022303D
:1043A000310509F044C08BE390E020E235E043C0E2
:1043B00021323105E1F02232310549F138C082E184
:1043C00090E02BE535E037C099278130910549F021
:1043D00028F0029761F5E4EFF4E005C0ECE1F5E0C8
:1043E00002C0E8E0F5E0849190E09F0124C06115EF
:1043F000710541F061307105D1F489E090E02BE462
:1044000035E019C089E090E022E335E014C0611581
:10441000710541F06130710551F486EB90E02DE6B5
:1044200035E009C080E490E023E236E004C080E09B
:1044300090E020E030E0FA0131832083089580E1AC
:1044400089BD82E189BD09B400FEFDCF8091D8000D
:104450008F7D8093D8008091E00082608093E0009F
:104460008091E00081FDFCCF0895CF92DF92EF9222
:10447000FF920F931F93CF93DF93EC018B017A018F
:104480000E949323811133C0E114F10439F0F70144
:1044900080819181081B190BC80FD91FC12CD12C09
:1044A0000115110519F18091E80085FD16C0809174
:1044B000E8008E778093E800E114F10449F0F701F9
:1044C00080819181C80ED91ED182C08285E00FC043
:1044D0000E949323882321F30AC089918093F100DD
:1044E00001501109FFEFCF1ADF0ADACF80E0DF9128
:1044F000CF911F910F91FF90EF90DF90CF90089593
:104500002091E9023091EA022617370748F0611539
:10451000710539F42091E8002E772093E80001C05E
:10452000B901FC0120E06115710579F18091E20289
:104530008823F1F18530F1F18091E80083FD3CC0E2
:104540008091E80082FD2EC08091E80080FFEBCFD3
:104550002091F3008091F20090E0922B611571059B
:1045600051F08830910538F421912093F100615089
:1045700071090196F3CF21E0089709F020E08091BE
:10458000E8008E778093E800CECF2111CFCF0AC00C
:104590008091E202882361F0853061F08091E8002B
:1045A00083FD0AC08091E80082FFF2CF80E0089589
:1045B00082E0089583E0089581E008952091E90262
:1045C0003091EA022617370748F06115710539F472
:1045D0002091E8002E772093E80001C0B901FC018A
:1045E00020E06115710591F18091E202882309F4C0
:1045F00040C0853009F43FC08091E80083FD3DC094
:104600008091E80082FD2FC08091E80080FFE9CF13
:104610002091F3008091F20090E0922B61157105DA
:1046200059F08830910540F424912093F10031969F
:10463000615071090196F2CF21E0089709F020E05E
:104640008091E8008E778093E800CBCF2111CCCF0A
:104650000AC08091E202882361F0853061F0809188
:10466000E80083FD0AC08091E80082FFF2CF80E07D
:10467000089582E0089583E0089581E00895982FD9
:10468000973068F59093E900981739F07091EC0035
:104690002091ED005091F00003C0242F762F50E0C0
:1046A00021FD02C09F5FECCF3091EB003E7F309345
:1046B000EB003091ED003D7F3093ED003091EB0049
:1046C00031603093EB007093EC002093ED00509339
:1046D000F0002091EE0027FDE5CF80E008958F7077
:1046E0008093E90081E008958091E30287FF11C083
:1046F0008091E80082FD05C08091E2028111F8CF2F
:1047000011C08091E8008B770BC08091E202882372
:1047100049F08091E80080FFF8CF8091E8008E7723
:104720008093E80008952091E4003091E50095E63B
:104730004091EC00842F817040FF23C08091E800FD
:1047400080FD1DC08091E202882399F0853099F0A8
:104750008091EB0085FD11C04091E4005091E5008F
:104760002417350729F3915011F09A01E1CF84E025
:10477000089582E0089583E0089581E0089580E03F
:1047800008954091E80042FFDDCF08950E9434244F
:104790000E943C24E0EEF0E0808181608083E8EDBF
:1047A000F0E080818F77808319BCA7EDB0E08C9119
:1047B0008E7F8C9380818F7E80831092E10208959A
:1047C0000F931F93CF93DF930E9434240E943C24C5
:1047D000C8EDD0E088818F7788838881806888835E
:1047E00088818F7D888319BC1092E2021092DE02CC
:1047F0001092E0021092DF0200EE10E0F8018081DA
:104800008B7F808388818160888342E060E080E0E4
:104810000E943F23E1EEF0E080818E7F8083E2EE14
:10482000F0E0808181608083808188608083F801EE
:1048300080818E7F8083888180618883DF91CF91A2
:104840001F910F910895E8EDF0E080818F7E8083C5
:10485000E7EDF0E080818160808384E082BF81E0C9
:104860008093E1020C94E023E8EDF0E080818E7FFC
:1048700080831092E20008951092DA001092E10015
:1048800008951F920F920FB60F9211242F933F930A
:104890004F935F936F937F938F939F93AF93BF9348
:1048A000EF93FF938091E10082FF0BC08091E200C3
:1048B00082FF07C08091E1008B7F8093E1000E941E
:1048C000B7268091DA0080FF1FC08091D80080FF5A
:1048D0001BC08091DA008E7F8093DA008091D9002E
:1048E00080FF0DC080E189BD82E189BD09B400FE71
:1048F000FDCF81E08093E2020E94892005C019BCAF
:104900001092E2020E9497208091E10080FF19C07E
:104910008091E20080FF15C08091E2008E7F80933D
:10492000E2008091E20080618093E2008091D800F3
:1049300080628093D80019BC85E08093E2020E94D7
:104940009C208091E10084FF30C08091E20084FFD0
:104950002CC080E189BD82E189BD09B400FEFDCF94
:104960008091D8008F7D8093D8008091E1008F7E68
:104970008093E1008091E2008F7E8093E20080913D
:10498000E20081608093E2008091DE02882311F0D2
:1049900084E007C08091E30087FD02C081E001C090
:1049A00083E08093E2020E94A4208091E10083FFD3
:1049B00029C08091E20083FF25C08091E100877FBC
:1049C0008093E10082E08093E2021092DE02809107
:1049D000E1008E7F8093E1008091E2008E7F8093E2
:1049E000E2008091E20080618093E20042E060E0BA
:1049F00080E00E943F238091F00088608093F00067
:104A00000E949A20FF91EF91BF91AF919F918F915A
:104A10007F916F915F914F913F912F910F900FBEBA
:104A20000F901F9018951F920F920FB60F9211249E
:104A30002F933F934F935F936F937F938F939F93A6
:104A4000AF93BF93CF93DF93EF93FF93C091E900B0
:104A5000CF708091EC00D82FD17080FDD0E81092FB
:104A6000E9008091F000877F8093F00078940E94A5
:104A700057251092E9008091F00088608093F00043
:104A8000CD2BCF70C093E900FF91EF91DF91CF91D3
:104A9000BF91AF919F918F917F916F915F914F9156
:104AA0003F912F910F900FBE0F901F9018951F935D
:104AB000CF93DF93CDB7DEB7AA970FB6F894DEBFDA
:104AC0000FBECDBFE3EEF2E08091F100819322E0D2
:104AD000EB3EF207C9F70E94C2208091E80083FFF5
:104AE0002EC18091E3029091E402492F50E04A30B8
:104AF000510508F024C1FA01EC58FF4F0C94FB2635
:104B0000803821F0823809F01AC108C08091DF0294
:104B10009091E002992389F082600FC08091E702B2
:104B20008F70873008F00BC18093E9008091EB0013
:104B300085FB882780F91092E9009091E800977F23
:104B40009093E8008093F1001092F100D1C0282FDB
:104B50002D7F09F0F4C0882319F0823061F0EFC096
:104B60008091E502813009F0EAC0933009F080E0DD
:104B70008093E0022EC08091E50281112AC08091CD
:104B8000E7028F702FEF280F263008F0D8C08093EF
:104B9000E9002091EB0020FF1CC0933021F48091AC
:104BA000EB00806214C09091EB0090619093EB0059
:104BB00021E030E0A90102C0440F551F8A95E2F7B9
:104BC0004093EA001092EA008091EB0088608093A5
:104BD000EB001092E9008091E800877F8093E80065
:104BE0000E947423ACC08111AAC01091E5021F7706
:104BF0008091E3008078812B8093E3008091E8002E
:104C0000877F8093E8000E9474238091E80080FFF2
:104C1000FCCF8091E30080688093E300111102C013
:104C200082E001C083E08093E20289C08058823034
:104C300008F085C08091E5029091E6028C3D53E03A
:104C4000950779F583E08A838AE289834FB7F894E0
:104C5000DE01139620E03EE051E2E32FF0E05093B6
:104C60005700E49120FF03C0E295EF703F5FEF70C3
:104C70008E2F90E0EA3010F0C79601C0C0968D9359
:104C80009D932F5F243149F74FBF8091E800877FC4
:104C90008093E8006AE270E0CE0101960E948022D3
:104CA00016C06091E7027091E802AE014F5F5F4F5E
:104CB0000E94C421BC01892B09F441C09091E800F5
:104CC000977F9093E80089819A810E94DE228091EB
:104CD000E8008B778093E80032C0803881F58091BE
:104CE000E800877F8093E8008091DE028093F100E6
:104CF0008091E8008E7772CF811121C08091E5020A
:104D00009091E60299270297D4F48091E800877F7A
:104D10008093E8008091E5028093DE020E94742374
:104D20008091DE02811106C08091E30087FD02C000
:104D300081E001C084E08093E2020E94AE20809175
:104D4000E80083FF0AC08091E800877F8093E80035
:104D50008091EB0080628093EB00AA960FB6F894E6
:104D6000DEBF0FBECDBFDF91CF911F910895089593
:104D7000CF938091E2028823A1F0C091E900CF7027
:104D80009091EC00892F817090FD80E8C82B1092E3
:104D9000E9008091E80083FD0E945725CF70C09301
:104DA000E900CF910895AA1BBB1B51E107C0AA1FC0
:104DB000BB1FA617B70710F0A61BB70B881F991FBC
:104DC0005A95A9F780959095BC01CD01089597FB60
:104DD000072E16F4009407D077FD09D00E94D32641
:104DE00007FC05D03EF4909581959F4F08957095EE
:104DF00061957F4F0895EE0FFF1F0590F491E02D10
:104E00000994F999FECF92BD81BDF89A992780B592
:104E10000895A8E1B0E042E050E00C943527262F39
:104E2000F999FECF92BD81BDF89A019700B40216A0
:104E300039F01FBA20BD0FB6F894FA9AF99A0FBE4E
:104E400008950396272F0E9410270E940F27252FD1
:104E50000E941027242F0C9410270196272F0E94C0
:104E600010270C940F27DC01CB01FC01F999FECF30
:104E700006C0F2BDE1BDF89A319600B40D924150E2
:0A4E80005040B8F70895F894FFCFF2
:104E8A00C80058022808643C0714F21F1520F61FB0
:104E9A0085208120F51F01E200E900EA00B500B68D
:104EAA0000B700CD008301CC008A01920194012150
:104EBA0002230224022502260227022A02B300B490
:104ECA00006F007000818283E200E900EA00B50009
:104EDA00B600B700CD008301CC008A01920194018B
:104EEA002102230224022502260227022A02B300F3
:0A4EFA00B4006F0070008182830095
:00000001FF
