:100000000C948A020C94D1020C94D1020C94D1026B
:100010000C94D1020C94D1020C94D1020C94D10214
:100020000C94D1020C94D1020C94EF220C94C123B5
:100030000C94261E0C94D1020C94D1020C94D10283
:100040000C94D1020C94D1020C94D1020C94D102E4
:100050000C94D1020C947F1E0C94D1020C94D1020A
:100060000C94D1020C94D1020C94D1020C94D102C4
:100070000C94D1020C94D1020C94D1020C94D102B4
:100080000C94D1020C94D1020C94D1020C94D102A4
:100090000C94D1020C94D1020C94D1020C94D10294
:1000A0000C94D1020C94D1020C94D102AA08AA0893
:1000B000DC08DC0822094009600A600A4B09E009F3
:1000C000F109F109500A600A600A590A0E0B0E0B79
:1000D000200B200B170B200B200B200B0E0B0E0BF5
:1000E0001C0B200B200B1C0B2E2455244D255524B6
:1000F0004D25A124C4244D251B252A2529001E0099
:100100001F0020002100220029004F0023002400AE
:100110002500260027002D00350014001A000800D5
:1001200015001700280001531C0018000C001200D5
:1001300013003100015104001600070009000A00F5
:10014000000000000B000D000E000F003342346869
:10015000E1001D611B000600190005682B002A0044
:1001600011781000360037003861E5003541340061
:10017000E10450004F0000000000000000005100AA
:1001800052002F00300001580000E3002A002C002C
:100190004A006564E300E20029614B0028002B005F
:1001A0004E00000035003A003B003C003D003E00A0
:1001B000010001003F0040004100420043004400B4
:1001C00001001E021F022F02300231020100010055
:1001D00052002400250026002502450001002002CF
:1001E00021022602270235000000000050005100C5
:1001F00052004F002E0201000100220223022F00B4
:10020000300035020100010024021E001F00200002
:1002100031000100DF5C010001000100010000006D
:100220000000000000000100370027002E00010040
:1002300000000100CA5CCB5C0100C45C0100C35C2F
:10024000CE5C0100C65CC75C01000000010001003B
:100250000100010001000100010001000100010096
:100260000100010001000100010001000100ED009A
:100270000100010001000100010001000100010076
:100280000100010001000100EF00EE00F00001009C
:100290000000000001000100010001000100AE00AB
:1002A0000100010001000100010001000100010046
:1002B00001000100AC00AB000100010001000100E1
:1002C0000100F100F2000000000000000000AA00A0
:1002D000A900A800010001000000010001000100C8
:1002E000010001000100010001000100B600010051
:1002F0000100000000000000000000002A2B280080
:1003000000000000000000000000000000000029C4
:10031000000000002C1E3420212224342627252E04
:10032000362D3738271E1F2021222324252633333C
:10033000362E37381F0405060708090A0B0C0D0E68
:100340000F101112131415161718191A1B1C1D2F34
:100350003130232D350405060708090A0B0C0D0E54
:100360000F101112131415161718191A1B1C1D2F14
:100370003130354C0000000000000000000000009B
:10038000000000000000000000000000000000006D
:1003900000000000000000007E0F00D4FFFFFFC738
:1003A0000000007812034500720067006F004400EF
:1003B0006F006E006500000012034B002E00540019
:1003C0002E0045002E0043002E0000000403090407
:1003D00009023B00020100A0FA0904000001030128
:1003E00001000921110100012240000705810308D5
:1003F000000A0904010001030000000921110100A5
:100400000122B6000705820320000A120100020043
:10041000000008091228230100010200010501095A
:1004200002A10185020901A1000509190129081588
:100430000025019508750181020501093009311572
:1004400081257F95027508810609381581257F95DC
:100450000175088106050C0A38021581257F950172
:1004600075088106C0C005010980A1018503190135
:100470002AB700150126B700950175108100C00547
:100480000C0901A101850419012AA002150126A069
:1004900002950175108100C005010906A1018505BD
:1004A000050719E029E71500250195087501810266
:1004B0000507190029EF1500250195F07501810246
:1004C0000508190129059505750191029501750326
:1004D0009101C005010906A101050719E029E715E9
:1004E00000250195087501810295017508810105B6
:1004F00007190029FF150026FF00950675088100E1
:1005000005081901290595057501910295017503E5
:100510009101C00011241FBECFEFDAE0DEBFCDBFD6
:1005200004B603FE27C08091E5029091E602A091F7
:10053000E702B091E8028730904BA740B04BD1F46E
:100540001092E5021092E6021092E7021092E80281
:1005500014BE84B7877F84BF0FB6F894A8958091A6
:100560006000886180936000109260000FBEE0E040
:10057000F8E3099511E0A0E0B1E0E6EEFBE402C08B
:1005800005900D92A637B107D9F722E0A6E7B1E0B2
:1005900001C01D92A53EB207E1F70E94AC150C9474
:1005A000F1250C94000080B38F7080BB81B38F70F5
:1005B00081BB84B1897F84B985B1897F85B90C9469
:1005C0004F046E98769A8AB183768AB98BB18C691A
:1005D0008BB93E98469A24982C9A0C9486040895D8
:1005E0000C94EF020C94EF020E94D3020E94E102ED
:1005F000ECECF1E088E791E011921192DC012EE041
:100600001D922150E9F70E9621E08C3C9207A1F74C
:100610000C94F3050E94D3020E94E102ECECF1E09D
:10062000118210821382128215821482178216821E
:10063000118610861386128608952EE0829FC001CF
:100640001124FC01E858FE4F20E030E040E050E08B
:1006500061E070E09081992319F09150908309C076
:10066000CB01022E02C0880F991F0A94E2F7482B93
:10067000592B2F5F3F4F31962E30310559F7CA0164
:100680000895CF932EE0629FB001112420E030E066
:10069000A1E0B0E0C5E0AD01022E02C0440F551F3D
:1006A0000A94E2F748235923452B31F0FB01E20F6E
:1006B000F31FE858FE4FC0832F5F3F4F2E303105A8
:1006C00051F7CF9108954F925F927F928F929F92B0
:1006D000AF92BF92CF92DF92EF92FF920F931F9350
:1006E000CF93DF930E946A040CEC11E0C0E0D1E0EC
:1006F000C33099F028F4C13051F0C23059F004C031
:10070000C43071F0C53079F0849A8C980EC0859A07
:100710008D980BC0869A8E9808C0879A8F9805C0CE
:10072000219A299802C0229A2A988C2F0E94530459
:1007300080EA8A95F1F78C2F0E941D035C010E94CC
:10074000A2044B9904C060E4E62EF12C02C0E12C17
:10075000F12C4A9903C0A0E2B0E002C0A0E0B0E0F2
:100760004C9904C050E1452E512C02C0412C512C13
:10077000369903C068E070E002C060E070E029B123
:10078000022E000C330B209530952227330F221FA9
:100790003327220F331F220F331F669903C042E015
:1007A00050E002C040E050E073B0F801C080D1805A
:1007B0007294EFE07E227D2670FA882480F8912CD6
:1007C000882999298E299F298A2B9B2BF201E82BB6
:1007D000F92B6E2B7F2B262B372B422B532B4C25A3
:1007E0005D25A422B522AC24BD246C2FC6018A2528
:1007F0009B250E944103F801A192B1928F010E94B2
:10080000D302CF5FC63009F073CF0E94FB0581E0B1
:10081000DF91CF911F910F91FF90EF90DF90CF90DC
:10082000BF90AF909F908F907F905F904F90089572
:10083000E82FF0E0EE0FFF1FE453FE4F808191811F
:1008400008950895853008F08F5F2091D80130E039
:10085000A90102C0559547958A95E2F7CA018170B2
:1008600008950F931F93CF93DF931F92CDB7DEB7F9
:10087000982F69838091D901882359F0692F04E664
:1008800010E021E030E0AE014F5F5F4F80E40E9456
:100890002E1C0F90DF91CF911F910F9108956FEF54
:1008A00081E00C9431048F5F61E070E001C0660F5D
:1008B0008A95EAF7609581E00C9431046FEF82E04D
:1008C0000E9431046FEF8CE00E9431046FEF81E0F1
:1008D0000C94310464E670E080E40E94331B8111C3
:1008E0000CC00E94A71C8091D90181110EC081E02B
:1008F0008093D9010E945E0406C08091D9018130A5
:1009000021F41092D9010C94FC0A08950E942D1B29
:100910000C946A040F931F93982F8091D901882318
:1009200049F0AB01692F04E610E021E030E080E4FB
:100930000E945B1C1F910F91089568ED71E082E1A8
:100940000C948A048F929F92AF92BF92EF92FF9283
:100950000F931F93CF93DF930E949D04C0E0D0E0DC
:1009600000E010E08DE0E82EF12C812C912C540158
:1009700083948C2F0E942204882371F0C7018C1B62
:100980009D0BA501940104C0220F331F441F551F66
:100990008A95D2F7022B132B2196CE30D10549F739
:1009A000C801DF91CF911F910F91FF90EF90BF9001
:1009B000AF909F908F90089584B1886684B985B177
:1009C000877985B9209A289A559A5D9A089525982D
:1009D0002D9826982E9823982B982098289A259A17
:1009E0002D9A2FEF80E792E0215080409040E1F770
:1009F00000C00000269A2E9A2FEF80E792E0215047
:100A000080409040E1F700C00000239A2B9A2FEF1E
:100A100080E792E0215080409040E1F700C0000064
:100A200025982D982FEF80E792E02150804090404C
:100A3000E1F700C0000026982E982FEF80E792E0A3
:100A4000215080409040E1F700C0000023982B988F
:100A500025982D9826982E9823982B982098289A98
:100A600008950E94DC040E94E7040C94F0029C01AB
:100A70003A9521153F4130F5BC0166277270AC01F3
:100A8000442754709C012227387094FF0FC090FFB8
:100A900002C080E101C080E0672B09F08062452B35
:100AA00009F08064232B79F080680895892F817084
:100AB000672B09F08260452B09F08460232B19F025
:100AC0008860089580E00895CF93DF93EC01805E05
:100AD0009109089710F0209731F4CE010E94370554
:100AE0000E94690805C0CE010E9437050E94D40A01
:100AF0008C2FDF91CF910C943707CF93DF93EC01CC
:100B00000E94E107CE01805E9109089710F02097BE
:100B100039F4CE010E943705DF91CF910C94700813
:100B2000CE010E943705DF91CF910C94DB0ACF9361
:100B3000DF93EC010E946405CE01DF91CF910C940C
:100B40007D0581E0089581E008950C94A305089542
:100B50000C94A7051F93CF93DF9300D000D01F9272
:100B6000CDB7DEB749835A836B833091DA0189812F
:100B70009A81311114C0662359F0222349F00E9452
:100B8000B20C182F682F89819A810E945B0C03C0D8
:100B90000E94860C182F69817A81812F04C00E94DF
:100BA000B20C69817A810F900F900F900F900F9087
:100BB000DF91CF911F910C945B13FC01262F408194
:100BC00051816281738184810C94AA0581E008952A
:100BD000CF93DF93EC0160E00E94DD05BE01DF9161
:100BE000CF910C94A8050E9488150E94DD060E94F2
:100BF0005F180C9431050C94F20208950E94FC0ACF
:100C00000E94FD052FEF84E39CE02150804090403E
:100C1000E1F700C000000C94A51E0F931F93CF9323
:100C2000DF938C0161E00E94DD05EC01B8010E94B8
:100C3000A505882309F444C0B801CE010E94E71835
:100C40008823F1F1B801CE010E9478198823C1F1FF
:100C5000B801CE010E94CA19882391F1B801CE01D2
:100C60000E94FC1A882361F1F8018281882309F12E
:100C7000CB358DE5D807C1F050F4C115FCE5DF0791
:100C800081F0CF3DDC45A9F40E94501219C0CC354B
:100C9000EDE5DE0761F0CD35DD4559F40E94D11058
:100CA00008C00E94FE050CC00E94DA1002C00E941B
:100CB000DD10C801DF91CF911F910F910C94A10518
:100CC00080E0DF91CF911F910F910895DF92EF9215
:100CD000FF920F931F93CF93DF93E82FF0E0EC5038
:100CE000FD4FD490282F26952695269530E0F901C2
:100CF000EC56FC4F0491877010E0082E02C0159549
:100D000007950A94E2F701701127F901EC57FC4F9F
:100D1000E490F12C082E02C0F594E7940A94E2F7CF
:100D200091E0E922FF24F901EC58FC4FC491D0E096
:100D300002C0D595C7958A95E2F7C170DD270115E8
:100D4000110519F081EE0E943707E114F10419F042
:100D500086EE0E9437078D2D0E946008EF2819F05B
:100D600086EE0E94E107012B19F081EE0E94E10757
:100D7000CD2B51F08CE2DF91CF911F910F91FF901D
:100D8000EF90DF900C946008DF91CF911F910F914D
:100D9000FF90EF90DF900895982F9F709A509630B3
:100DA00010F0805D01C0895A0C94660608950C9479
:100DB000D60681E008950C94D9060895CF93C82FE4
:100DC0000E94D7068C2F0E94DB06CF910895CF9307
:100DD000DF93CDB7DEB72B970FB6F894DEBF0FBE0B
:100DE000CDBF4F83588769877A878B8761110E94AF
:100DF00003119E012F5F3F4F86E0F90111928A9502
:100E0000E9F785E0FE013796D90101900D928A95A8
:100E1000E1F789819A814C815D81452B31F09F3FBB
:100E200031F491E08F3F19F403C091E001C090E0EC
:100E300090FF09C049815A816B817C818D819E819F
:100E40000E94001005C0C9010E94E6058111F2CF81
:100E50002B960FB6F894DEBF0FBECDBFDF91CF91BA
:100E60000895FC01808191810E94F40C0895CF9334
:100E7000882309F4A4C0C82F8238C1F40E94B01C92
:100E800081FD9DC069E380910001909101010E9464
:100E9000A91D0E9435112FEF81EE94E02150804072
:100EA0009040E1F700C0000069E319C0833801F504
:100EB0000E94B01C80FD83C063E580910001909189
:100EC00001010E94A91D0E9435112FEF81EE94E0CF
:100ED000215080409040E1F700C0000063E5809120
:100EE0000001909101010E94B41DCF910C94351125
:100EF0008438C1F40E94B01C82FD61C067E4809117
:100F00000001909101010E94A91D0E9435112FEF4F
:100F100081EE94E0215080409040E1F700C0000055
:100F200067E4DDCF8CEF8C0F813AD0F46C2F809189
:100F30000001909101010E94291D882349F06C2F26
:100F400080910001909101010E94B41D0E94351111
:100F50006C2F80910001909101010E94A91DC5CFC5
:100F600080E28C0F883048F4C77081E001C0880FA0
:100F7000CA95EAF70E94E310B8CFEBE5EC0FE33037
:100F800040F4F0E0EF5BFE4F808190E0CF910C9455
:100F9000E71CE8E5EC0FE73150F4F0E0EE0FFF1F3F
:100FA000ED5EFE4F80819181CF910C94FD1CCD3E72
:100FB00030F08C2F0E943916CF910C940B17CF91E3
:100FC0000895882309F464C0823879F40E94B01C23
:100FD00081FF5EC069E380910001909101010E9450
:100FE000A91D0E94351169E310C08338B1F40E9435
:100FF000B01C80FF4DC063E580910001909101011C
:101000000E94A91D0E94351163E580910001909115
:1010100001010E94B41D0C943511843879F40E94AA
:10102000B01C82FF35C067E48091000190910101FE
:101030000E94A91D0E94351167E4E7CF9CEF980F2D
:10104000913A10F4682FE1CF90E2980F983050F465
:10105000877091E001C0990F8A95EAF7892F0E9465
:10106000E910D9CF9BE5980F933020F480E090E011
:101070000C94E71C98E5980F973120F480E090E0FD
:101080000C94FD1C8D3E20F00E9494160C940B17BE
:1010900008951F93CF93DF93182FEB010E9437071A
:1010A000209741F08FE99FE00197F1F700C0000021
:1010B0002197F6CF812FDF91CF911F910C94E107FB
:1010C000893319F060E070E002C060E570E00C94D4
:1010D0004908882321F00E94E3100C9435110895EB
:1010E000882321F00E94E9100C9435110895CF92C5
:1010F000DF92EF92FF920F931F93CF93DF937C01C8
:10110000062FC72FFC01D281158112951F700E94F6
:10111000B810882399F0DD2389F08C2F807F8034EC
:1011200021F080E2800F883048F082E00E94851133
:101130000E94B81091E0D82ED92601C0D12CCC2E17
:10114000C2948FE0C8228C2D90E0FC01EA5AFF4F38
:101150000C94A9258C2F807FCF70882311F0C29525
:10116000C07FDD2399F0CC2309F485C180E2800F94
:10117000883010F0011104C08C2F0E94E31003C0CE
:101180008C2F0E94F6100E94351175C1802F0E948D
:10119000E107CC2309F494C180E2800F883010F07D
:1011A000011104C08C2F0E94E91003C08C2F0E94F3
:1011B000FC100E94351184C18C2F807FCF7080324B
:1011C00011F0C295C07F002319F00130C9F024C08E
:1011D000DD2371F0112341F0113031F40E9416111A
:1011E0008C2B0E941E116CC10E9416118C2B0EC0FC
:1011F000112319F0113009F463C10E942B111EC094
:10120000DD2339F0123008F05BC18C2F0E94690891
:1012100057C1111155C112C0DD2319F01123A9F3D3
:101220002AC1112359F0093309F036C1FFEF27EE27
:1012300083E0F15020408040E1F72CC18C2F0E94C8
:1012400070083EC18C2F86958695837019F0813089
:1012500061F036C1DD2321F0802F9C2F937002C0F6
:1012600080E090E00E94E71C33C1DD2321F0802F55
:101270009C2F937002C080E090E00E94FD1C28C16A
:10128000802FDD2319F00E94391602C00E949416A7
:101290000E940B171DC18C2F837009F045C0D1111E
:1012A00013C1402F429546954770440F440F602F5D
:1012B0006F70862F90E0A0E0B0E0042E04C0880F8D
:1012C000991FAA1FBB1F0A94D2F704FF10C00FE09A
:1012D00010E020E030E004C0000F111F221F331F78
:1012E0004A95D2F7009510952095309503C000E0FF
:1012F00010E09801C695C695C370BC01CD01602B66
:10130000712B822B932BC23049F058F4C13019F065
:101310000E94710BD9C00E945F0BD6C00E94830B44
:10132000D3C00E945D0BD0C0DD2319F08C2F8170DB
:1013300001C08695882309F4C7C0402F4295469581
:101340004770440F440F602F6F70862F90E0A0E02D
:10135000B0E0042E04C0880F991FAA1FBB1F0A9477
:10136000D2F704FF10C00FE010E020E030E004C02E
:10137000000F111F221F331F4A95D2F700951095B9
:101380002095309503C000E010E09801C695C69501
:10139000C370BC01CD01602B712B822B932BC2300B
:1013A00049F058F4C13019F00E94360C8DC00E94EB
:1013B000240C8AC00E94480C87C00E94970B84C0EE
:1013C000CF70DD2339F08C2F0E94BD0B802F0E943F
:1013D00069087AC0802F0E9470088C2F0E94DE0B53
:1013E00073C0023FF9F028F4003F41F0013F99F04B
:1013F0003EC0033FF1F0043F31F139C0DD2339F045
:1014000011115EC08C2F8F710E94030C59C01230D5
:1014100008F056C0F7CFDD2339F08C2F8F710E9472
:10142000BD0B4EC0DD23C9F38C2F8F710E94DE0BE4
:1014300047C0DD2329F08C2F8F710E94A80B40C07C
:101440000E94A30B3DC0DD2349F0CF718C2F0E9479
:10145000BD0B63E08C2F0E946A1132C081E00E94B4
:101460008511123068F182E00E94851129C0DD23C8
:1014700031F0112391F2802F0E94370721C01123F0
:1014800099F2093349F49FEFE7EEF3E09150E04021
:10149000F040E1F700C00000802F0E94E10710C07B
:1014A0004C2F4F70602FC7010E9457130E94220DCE
:1014B0000FC04C2F4F70602FC7010E945A1308C0F5
:1014C00088EF8C0D843020F40E94B01C0E94DE0650
:1014D000DD20C9F00E94B41080FD15C0F701128212
:1014E0000E94AE100E94BD0BC7010E94A40A0E9478
:1014F000AE10DF91CF911F910F91FF90EF90DF9091
:10150000CF900C94DE0BDF91CF911F910F91FF9044
:10151000EF90DF90CF9008950F931F93CF93DF93B9
:10152000EC01688179818A810E94FF0C8C010E9404
:101530005A0C0E944B0BB801CE010E947708DF9134
:10154000CF911F910F910895CF93DF93EC01988174
:1015500089812B813C81232B31F08F3F31F481E055
:101560009F3F19F403C081E001C080E080FD19C0F5
:10157000CE010E940D0681110CC00E94B810882374
:1015800081F08A81882369F082E0DF91CF910C9409
:101590008511CE010E948C0ACE01DF91CF910C946F
:1015A000E805DF91CF910895882321F00E94F6107D
:1015B0000C9435110895882321F00E94FC100C949E
:1015C0003511089580E090E00E94E71C80E090E0F3
:1015D0000E94FD1C0E9403110E9413110E943511EC
:1015E0000E943C180C940B1780910001909101010E
:1015F0000E94BF1D0C94E20A0E94F3100C94F40A9E
:10160000E92FE295EF704E2F50E0FA013297EE305D
:10161000F105B0F4EA59FF4F0C94A925803F91F0F1
:1016200018F4883E68F40EC0843F51F40BC0883E25
:1016300048F0813F29F406C093FB882780F908957C
:1016400080E0089581E00895FC01808191810E94ED
:10165000F40C0E94000B0895CF93DF9300D000D0CC
:101660001F92CDB7DEB70F900F900F900F900F9095
:10167000DF91CF910895CF93DF9300D000D000D0B9
:10168000CDB7DEB726960FB6F894DEBF0FBECDBF3E
:10169000DF91CF910895089508950C944C0B0C940C
:1016A0004D0B0E944F0B60931602709317028093AC
:1016B0001802909319020C94E20A0C94510B0F93A8
:1016C0001F93009116021091170220911802309179
:1016D0001902602B712B822B932B1F910F910C946D
:1016E000510B0F931F930091160210911702209136
:1016F00018023091190260237123822393231F91D2
:101700000F910C94510B0F931F930091160210919F
:101710001702209118023091190260277127822741
:1017200093271F910F910C94510B0C944C0B0E941A
:10173000950B60931202709313028093140290939E
:1017400015020C94E20A60E070E0CB010C94970B58
:101750000F931F9341E050E060E070E08A019B012D
:1017600004C0000F111F221F331F8A95D2F7C90131
:10177000B8011F910F910C94970B0F931F9341E0A9
:1017800050E060E070E004C0440F551F661F771FF3
:101790008A95D2F78091120290911302A0911402BF
:1017A000B09115028A019B01082B192B2A2B3B2B88
:1017B000C901B8011F910F910C94970B0F931F93C0
:1017C00041E050E060E070E004C0440F551F661F28
:1017D000771F8A95D2F740955095609570958091C6
:1017E000120290911302A0911402B09115028A0185
:1017F0009B01082319232A233B23C901B8011F9108
:101800000F910C94970B0F931F9341E050E060E011
:1018100070E004C0440F551F661F771F8A95D2F7EA
:101820008091120290911302A0911402B0911502BE
:101830008A019B01082719272A273B27C901B801DC
:101840001F910F910C94970B0F931F93009112020D
:10185000109113022091140230911502602B712B0C
:10186000822B932B1F910F910C94970B0F931F9327
:10187000009112021091130220911402309115026E
:1018800060237123822393231F910F910C94970B54
:101890000F931F93009112021091130220911402D2
:1018A0003091150260277127822793271F910F918E
:1018B0000C94970B08952EE0929F800D1124E82F31
:1018C000E695E695E695877051E001C0550F8A953B
:1018D000EAF785E0E89FF0011124E552FE4F20E091
:1018E00030E070E04081CB01022E02C096958795D2
:1018F0000A94E2F781708195842785238427819358
:101900002F5F3F4F2530310569F708952EE0929FF4
:10191000800D1124682F669566956695982F9770AF
:1019200085E0689FB001112440E050E080E0FB01B9
:10193000E40FF51FE552FE4F208130E0092E02C072
:10194000369527950A94E2F721703327042E01C0BB
:10195000220F0A94EAF7822B4F5F5F4F4530510503
:1019600031F70895BF92CF92DF92EF92FF920F93DB
:101970001F93CF93DF938C01C0901202D09013027B
:10198000E0901402F09015028091160290911702D7
:10199000A0911802B0911902C82AD92AEA2AFB2A72
:1019A000CFE1D0E0D701C6010C2E04C0B695A795B3
:1019B000979587950A94D2F780FD04C0219790F7F8
:1019C000B12C07C0BC2EB8018C2F0E949214019735
:1019D000A9F38B2DDF91CF911F910F91FF90EF9085
:1019E000DF90CF90BF900895CF93DF93EC010E94DA
:1019F000B20CBE010E949214DF91CF9108951F9303
:101A0000CF93DF93EB019091DA01992321F0CB0181
:101A10000E94F40C13C0882349F0CB010E94B20C41
:101A2000182F682FCE010E945B0C04C0CB010E94CE
:101A3000860C182FBE01812F0E949214DF91CF9146
:101A40001F910895EF92FF920F931F93CF93DF930F
:101A50008C01892B09F46CC0F12CEE24E394E8018D
:101A60002196F8018491843740F4843008F051C005
:101A7000813081F0823019F15BC0853709F444C0B0
:101A8000A8F19CE7980F903708F052C08F770E941A
:101A9000E10741C00E5F1F4FFE01849190E2980F55
:101AA000983050F48770FE2D01C0FF0F8A95EAF739
:101AB0008F2F0E94061114C00E9437072DC00E5FA1
:101AC0001F4FFE01849190E2980F983060F4877068
:101AD000FE2D01C0FF0F8A95EAF78F2F0E940C118F
:101AE0000E94351119C00E94E10716C00E5F1F4FFA
:101AF000FE01C491CC2381F08FE99FE00197F1F7BB
:101B000000C00000C150F6CF0E5F1F4FFE01F490E1
:101B100003C00E9437078E018F2D882309F49FCFC1
:101B2000EFE9FFE03197F1F700C000008150F5CFF9
:101B3000DF91CF911F910F91FF90EF9008951F9328
:101B4000CF93DF93C0911A0216E080911B02C81751
:101B500099F0D0E01C9FF0011D9FF00D1124E45E70
:101B6000FD4F4081518162817381848195810E9402
:101B70003B0B2196C770E9CFDF91CF911F9108955C
:101B800040914C0250914D0260914E0270914F0273
:101B900080915002909151020C943B0B0F931F9334
:101BA000CF93DF938091510282958F7009F05DC0D1
:101BB00080914E02882309F458C080911A02109136
:101BC0001B0260914C0270914D02C0914F02D09166
:101BD000500291E06F3F09F090E0292F06E0811755
:101BE00009F443C0209721F07F3F21F030E003C08B
:101BF00031E001C0322F90E030FD34C0089FF00189
:101C0000099FF00D1124DF01A45EBD4F11963C9198
:101C10001197371327C03C91361324C012963C917C
:101C2000129731111FC013964D915C9114974C1B64
:101C30005D0B483C5105B0F4809151028F7080617A
:101C400080935102EF5DFD4F80818F7080618083B2
:101C50008CE492E00E94A40ADF91CF911F910F9132
:101C60000C949F0D01968770BACFDF91CF911F9191
:101C70000F9108959F92AF92BF92CF92DF92EF9211
:101C8000FF920F931F93CF93DF93CDB7DEB761978A
:101C90000FB6F894DEBF0FBECDBF8C0185E0F80112
:101CA000DE011D9601900D928A95E1F7F801E28020
:101CB00090914C0260914D0220914F023091500260
:101CC0002115310531F06F3F31F481E09F3F19F468
:101CD00003C081E001C080E0F82FF1709F2E80FDED
:101CE0003FC1F80140815181A380B4808CE4C82EAB
:101CF00082E0D82EF0904E02F501E21BF30BFF209C
:101D000009F4D9C080915102E83CF10508F095C072
:101D1000282F207F09F052C0561313C0491311C059
:101D2000FE2CE1100EC08F708061809351020E94E2
:101D3000C00DC6010E94A40A80915102F80185835A
:101D40004CC1AB2831F05F3F31F481E04F3F19F4D3
:101D500003C081E001C080E080FD03C081E08E25EA
:101D600002C080E090E0F82FF170FF2E80FF1CC0D1
:101D700080911A0220911B0236E0821709F40BC1F0
:101D800090E0389FF001399FF00D1124E45EFD4F83
:101D90006181561306C06081461303C06281E6125A
:101DA00003C001968770E9CFFE2CEE2009F415C11F
:101DB0008091510281608093510254C0561306C035
:101DC000491304C0E11002C0F80199C0C8010E9483
:101DD000240B882361F1EE2051F120915102822FD2
:101DE00082958F7090E0029774F080914C029091F0
:101DF0004D0298878F831986BB86AA862C87CE01D1
:101E000007960E94A40A86E0F801ACE4B2E00190D3
:101E10000D928A95E1F70E94CE0D0E94C00D0AC076
:101E2000561711F1C8010E94240B81112CC0C80162
:101E30000E94A40AFF24F394D0C0282F207F81F7AA
:101E40007A2DB98AA88A6E2D89890E942C0B8CE480
:101E500092E00E94A40A86E0F60111928A95E9F7C1
:101E60000E94C00DF12CB9C04913DCCFE110DACFCC
:101E7000F8018583C8010E94A40A86E0F601119248
:101E80008A95E9F7AAC0EE2091F220915102822FA3
:101E900082958F7090E002970CF4B5CF80914C0240
:101EA00090914D029A8389831B82BD82AC822E83DE
:101EB000CE010196A6CFE83CF10508F044C0FE2C07
:101EC000EE2009F4B4CF561330C049132EC0209130
:101ED000510220FD21C0822F82958F70482F50E043
:101EE00041155105C9F0F80125834F30510541F0E6
:101EF0008F5F982F9295907F822F8F70892B85838B
:101F0000C8010E94A40A86E0F801ACE4B2E00190A6
:101F10000D928A95E1F73CC086E0F801ACE4B2E0AE
:101F200001900D928A95E1F758C0C8010E94240BD8
:101F3000811169CF80915102816080935102C80163
:101F40000E94A40A4AC07A2DB98AA88A6E2D89896E
:101F50000E942C0B86E0F60111928A95E9F718C0D1
:101F6000EE2009F464CFC8010E94240BF82E8823C8
:101F700009F45DCF86E0F801ACE4B2E001900D9287
:101F80008A95E1F78CE492E00E9431070E94CE0D21
:101F90000E94C00D22C04D875E878D859E850E9460
:101FA000F40C292F22952F70223028F49F7039F0DD
:101FB000811105C00BC0243028F49F7049F4805E65
:101FC000883020F0C8010E94A40A9F2CF92C05C07B
:101FD000F8019581907F99F7F9CF8F2D61960FB613
:101FE000F894DEBF0FBECDBFDF91CF911F910F914F
:101FF000FF90EF90DF90CF90BF90AF909F900895AB
:102000001F93CF93DF93CDB7DEB72C970FB6F8941D
:10201000DEBF0FBECDBF4F83588769877A878B8716
:102020009C87CE0107960E943A0E8823D1F09F81AB
:1020300088852A853B85232B31F08F3F31F481E061
:102040009F3F19F403C081E001C080E080FD47C0DC
:102050004F81588569857A858B859C850E943B0BCD
:102060003EC086E0FE013796DE01119601900D928A
:102070008A95E1F7FF81E8856A857B8561157105A1
:1020800031F0EF3F31F481E0FF3F19F403C081E00C
:1020900001C080E080FD23C020911B0230E0C90117
:1020A00001968770992740911A0250E0841795078E
:1020B000F1F1F983EA837D836C8396E0929FD001EE
:1020C000939FB00D1124A45EBD4FFE013196019087
:1020D0000D929A95E1F780931B020E949F0D16E0E6
:1020E00080911A0290911B02891771F1189FC0010B
:1020F0001124845E9D4F0E943A0E882329F1E091BD
:102100001A021E9FF0011124E45EFD4F40815181AF
:1021100062817381848195810E943B0B80911A02B8
:1021200090E001968770992780931A02D9CF0E9478
:10213000FC0A10921B0210921A02ECE4F2E086E014
:10214000DF011D928A95E9F72C960FB6F894DEBF51
:102150000FBECDBFDF91CF911F91089580915202A4
:10216000859585958595089580915202877008958B
:1021700090915202977081E009F480E00895909167
:10218000CD0292FB222720F9281751F080FB92F90B
:102190009093CD028091CC029091CD020C94CC1101
:1021A00008958091CD0282FB882780F991E08927EC
:1021B0000C94BF1081E00C94BF1080E00C94BF1011
:1021C00080917602089590917602892B8093760211
:1021D00008958095909176028923809376020895E0
:1021E0008093760208951092760208959091750278
:1021F000892B8093750208958095909175028923AB
:10220000809375020895109275020895909174025A
:10221000892B80937402089580959091740289238C
:10222000809374020895109274020895809153026D
:10223000089508950C9419110C941A119091CD02DF
:1022400092FD08C090915302981721F08093530299
:102250000C941C11089580915302882329F0109248
:10226000530280E00C941C110895E0910001F0915C
:102270000101809176028083E0910001F0910101DB
:10228000908180917502892B8083E0910001F0910B
:102290000101908180917402892B80838091530287
:1022A000882381F0E0910001F09101019081892B58
:1022B000808380910001909101010E94131D811182
:1022C0000E942B1180910001909101010C94BF1C80
:1022D0000C9419119091CD0292FD10C098E0899F45
:1022E00090011124262B209352020E94BD0B809155
:1022F00052028595859585950C9468110C94BD0BBB
:102300001092520280E00C94681120915202809544
:10231000822380935202982F977041F430E0482F27
:10232000082E000C550B2417350721F49091CD028F
:1023300092FF07C08595859585950E94DE0B0C94CC
:10234000801108956FEF7FEF80E090E00C94DB2523
:1023500080E090E00E94B72521E0893E9E4F09F081
:1023600020E0822F089582E090E00C94AF2583E076
:1023700090E00C94AF25CF9384E090E00E94AF25CD
:10238000C82F82E290E00E94AF252C2F30E0A901F7
:10239000582BCA01CF910895CF93C92F682F84E09D
:1023A00090E00E94BD256C2F82E290E0CF910C94CA
:1023B000BD25AB01BC018FE090E00C94CF25AB01B3
:1023C000BC0183E190E00C94CF2560E070E0CB018C
:1023D0000C94DF1160E070E0CB010E94D9110C94E5
:1023E000E51169EE7EEF80E090E00E94DB2560E081
:1023F00082E090E00E94BD2560E083E090E00E94D2
:10240000BD25109216021092170210921802109217
:10241000190260E084E090E00E94BD2560E082E265
:1024200090E00E94BD2560E085E090E00E94BD251F
:1024300060E086E090E00E94BD256FEF87E090E0CD
:102440000E94BD2540E050E0BA0188E090E00E9483
:10245000CF2560E08DE090E00E94BD2540E050E097
:10246000BA0188E190E00E94CF2560E087E190E02A
:102470000E94BD2540E050E0BA018CE190E00E944E
:10248000CF2560E070E080E290E00E94DB2540E034
:1024900050E0BA0188E190E00E94CF250C94EA1147
:1024A0000C94F111682F8EE090E00C94BD250E94F1
:1024B000641E609388027093890280938A029093CD
:1024C0008B026093840270938502809386029093BE
:1024D0008702089585B7806885BF85B7806885BF06
:1024E000089581E008950C94711208950C9475126A
:1024F0000C9475120C9478120C9475120C947C1236
:102500000C9475120E946A128EE695E10E94B61E26
:102510000E9480120C947E120E9476120C94751206
:102520000E944F1E0E94F402ECECF2E08081806871
:1025300080838091CC029091CD020E94CC110C94AA
:102540007A126F927F928F929F92AF92BF92CF92A8
:10255000DF92EF92FF920F931F93CF93DF93CDB74C
:10256000DEB72A970FB6F894DEBF0FBECDBF0E942C
:10257000630381110E94571238E7832E32E0932EB5
:1025800000E010E0C02E802F0E9418045C01F401CE
:10259000619071904F016826792661147104B1F43D
:1025A0000F5F1F4F0630110569F78FEF89838A830C
:1025B0001B820E94581E8160782F9D838C834981E5
:1025C0005A816B818D810E94E7063AC080918C020E
:1025D00081FD0E942104D12CEE24E394F12CC3014F
:1025E0008E219F21892B29F10E9473128823A9F043
:1025F000DE82CF82AE20BF2081E0AB2809F480E0EC
:1026000088870E94581E8160782F9A8789874E811B
:102610005F8168858A850E94E706000F111FF80117
:10262000E858FD4F80819181E826F926F182E08209
:1026300007C0D394EE0CFF1CFEE0DF12D0CFB0CF6A
:102640000E9429170E94B01C909177028917D1F03F
:102650000E94B01C809377022A960FB6F894DEBFD2
:102660000FBECDBFDF91CF911F910F91FF90EF90E3
:10267000DF90CF90BF90AF909F908F907F906F90A2
:102680000C94DE062A960FB6F894DEBF0FBECDBFBF
:10269000DF91CF911F910F91FF90EF90DF90CF903E
:1026A000BF90AF909F908F907F906F90089580E043
:1026B00090E00895089524E5829FC0011124FC0153
:1026C0002EE0729FE00DF11D1124E60FF11DEE0FBB
:1026D000FF1FE450FF4F859194910895880F991F33
:1026E000FC01EC55FC4F859194910895CF93DF93B5
:1026F0000E949714EC01811520E5920708F03FC075
:10270000811540E4940708F0D2C0883E910500F599
:10271000803E910508F002C1883A910570F4853A2F
:10272000910508F0A6C08130910509F49FC008F416
:10273000F2C0049708F0F2C0EEC08F3B910508F498
:10274000A1C0803C910508F4E6C0805C9109A5C059
:10275000811550E2950760F4C11581E0D80708F0B3
:10276000DDC0CD3ED10508F4D6C0CE019065D7C0FE
:10277000811520E3920708F093C09F708EC08115E9
:1027800045E5940708F046C0811554E5950708F023
:10279000A6C0C11582E5D80718F5C11521E5D207F5
:1027A00008F088C0CE01F4E096958795FA95E1F798
:1027B000282F23703C2F337081E090E002C0880FF7
:1027C000991F3A95E2F79C68922B2C2F2F70269533
:1027D000269540E2249F90011124822B932B9FC0C9
:1027E0009E01237033279C2F96959695C115D3454E
:1027F00008F065C041E050E002C0440F551F2A9523
:10280000E2F780E2989F90011124CA01822B932B5A
:102810009C6885C0811559E5950798F4C11588E530
:10282000D80708F061C0C11526E5D20708F073C0CB
:102830008C2F0E942B158F7190E0982F8827906223
:102840006EC081154AE5940708F453C0905681156F
:10285000904208F060C08D2F8F710E942B159E0151
:10286000332730628F71A901582B53C081E090E06B
:1028700056C0855AC82FD0E0CE58DE4F888190E0F0
:1028800090644DC0885AC82FD0E0CC0FDD1FCC5BC0
:10289000DE4F88819981946442C00E946E133FC0CC
:1028A0009927D3FF02C0986C3AC0906C38C09F70D3
:1028B000906A35C09C2F8827816F906A30C041E0B4
:1028C00050E002C0440F551F2A95E2F780E2989F1E
:1028D00090011124CA01822B932B9A6820C0982F53
:1028E0008827846F906A1BC09C2F8827806F906A0E
:1028F00016C08F700E942B159E0194E03695279587
:102900009A95E1F72F7030E0322F22273069A90124
:10291000482BCA0104C080E090E001C0CE01DF91E5
:10292000CF9108950E945B130E9476130895823818
:10293000910569F1B0F48133910509F46DC048F453
:102940008932910509F463C08A32910509F469C09E
:1029500008958533910509F455C089339105B9F07F
:102960000895833E910569F138F4803E9105B1F0F8
:10297000823E910509F10895863E9105A9F1873EB1
:102980009105B9F1843E910509F064C023C02091FE
:10299000CC0220FD4FC021FD4DC008958091CC0296
:1029A00080FD44C08091CD0280FF44C08091CC0264
:1029B00084FD42C083EE4DC08091CC0282FF38C0BE
:1029C000F5CF8091CC0282FD33C08091CD0280FD95
:1029D00031C0ECCF8091CD0281FF32C08091CC021A
:1029E00084FD2AC087EE35C08091CC0283FF26C0CB
:1029F000F5CF8091CC0283FD21C08091CD0281FD75
:102A00001FC0ECCF8091CC0285FD1CC01DC0809101
:102A1000CC0285FD19C016C08091CC0286FD16C07F
:102A200017C08091CC0286FD13C010C089E311C08D
:102A300082EE0FC080EE0DC080E00BC086EE09C0B4
:102A400084EE07C089E205C085E303C08AE201C0C5
:102A500081E390E008959091CC0292FF0DC0282F61
:102A60002871283019F4877F846006C0282F2471CC
:102A7000243011F48B7F886093FF0DC0282F2871BC
:102A8000283119F4877E846106C0282F24712431EF
:102A900011F48B7E88612091CD0220FF0DC0382F6C
:102AA0003871383019F4877F816006C0382F317152
:102AB000313011F48E7F886021FF0DC0282F2871DE
:102AC000283119F4877E816106C0282F21712131B8
:102AD00011F48E7E886194FD877E089580E00895CC
:102AE0000C94A2110E9463038FE39CE90197F1F714
:102AF00000C000000E94630380E00E94180480FF71
:102B000004C00E9470150C94A51E08950C947215B3
:102B10000E94A811811102C00E9450120E94B3119C
:102B200080938C020E94BB119093CD028093CC02C3
:102B30000E9486150E94B711682F70E080E090E037
:102B40000E945D0B60911202709113028091140239
:102B5000909115020C94950B0E94D11D0E942C207F
:102B60000E9445200E9457200E948C12FBCF80912A
:102B7000950280FF0BC06091060185E0689FB0015F
:102B8000112475956795759567952BC081FF09C0D0
:102B90006091060185E0689FB001112475956795E5
:102BA00020C082FF07C06091060185E0689FB001E8
:102BB000112417C0909194029923D1F060910501DE
:102BC000961788F72091060185E0289F900111242F
:102BD000929FA001939F500D112470E0CA010E94A2
:102BE00095256038710540F46115710519F406C02A
:102BF00065E070E0862F08958FE7089581E00895DD
:102C00008091950280FF08C06091030170E0759586
:102C100067957595679521C081FF06C06091030196
:102C200070E07595679519C082FF04C0609103013B
:102C300070E010C090919302992399F06091020185
:102C40009617A0F780910301899FC001112470E0BD
:102C50000E9495256038710540F46115710519F4DD
:102C600006C061E070E0862F08958FE7089581E047
:102C700008958D3E21F40E94B715819504C08E3EC3
:102C800029F40E94B7158093990208958F3E21F48C
:102C90000E94B715819504C0803F29F40E94B715A2
:102CA000809398020895893F19F40E94001605C088
:102CB0008A3F31F40E940016819580939A0208950C
:102CC0008B3F21F40E940016819504C08C3F29F4AB
:102CD0000E94001680939B0208959FE0980F983001
:102CE00078F421E030E0A90102C0440F551F9A9505
:102CF000E2F7CA0190919702892B80939702089579
:102D00008D3F21F48091950281600BC08E3F21F4AC
:102D100080919502826005C08F3F29F480919502D1
:102D200084608093950208958D3E39F490919902C4
:102D300097FF35C01092990259C08E3E29F49091A8
:102D400099021916BCF32BC0909198028F3E29F47A
:102D500097FF25C01092980249C0803F19F41916B8
:102D6000CCF31DC090919A02893F29F41916BCF446
:102D700010929A023BC08A3F19F497FF10C0F8CF17
:102D80008B3F39F490919B0297FF09C010929B02F0
:102D90002DC08C3F21F490919B021916BCF39FE04B
:102DA000980F983080F421E030E0A90102C0440F70
:102DB000551F9A95E2F7CA01809590919702892351
:102DC0008093970213C08D3F21F4809195028E7FEE
:102DD0000BC08E3F21F4809195028D7F05C08F3FFF
:102DE00029F4809195028B7F8093950280919802BF
:102DF000811106C080919902811102C01092940243
:102E000080919A02811106C080919B02811102C0BB
:102E10001092930208950E94581E20919802211149
:102E200004C020919902222321F090939202809372
:102E3000910220919A02211104C020919B02222329
:102E400021F09093900280938F0286E992E00C9497
:102E5000D91CEF92FF920F931F93CF93DF9300D073
:102E600000D000D0CDB7DEB786E0E6E9F2E0DE01C3
:102E7000119601900D928A95E1F7E0909802F090FA
:102E8000990200919A0210919B021092980210925E
:102E9000990210929A0210929B02E11003C0FF2047
:102EA00009F45DC080919102909192020E94701E7F
:102EB000AC0190919402992339F02091070130E000
:102EC0002417350758F04BC020918E028AE0289FC6
:102ED000900111242417350718F041C09F3F19F0C5
:102EE0009F5F90939402EE2061F00E94B7151E142C
:102EF00014F09FEF01C091E0989F902D11249093C2
:102F00009802FF2061F00E94B7151F1414F09FEF84
:102F100001C091E0989F902D1124909399023091D7
:102F200098023323E1F0209199022223C1F045EB6E
:102F30003403C0011124992319F09093980203C01F
:102F400081E08093980235EB2303C001112499237B
:102F500019F09093990203C081E0809399020111C6
:102F600003C0112309F45DC080918F0290919002FB
:102F70000E94701EAC0190919302992339F0209128
:102F8000040130E02417350758F04BC020918D0222
:102F90008AE0289F900111242417350718F041C0BA
:102FA0009F3F19F09F5F90939302002361F00E946E
:102FB0000016101614F09FEF01C091E0989F902D1D
:102FC000112490939A02112361F00E9400161116A9
:102FD00014F09FEF01C091E0989F902D11249093E1
:102FE0009B0230919A023323E1F020919B0222232D
:102FF000C1F045EB3403C0011124992319F09093DB
:103000009A0203C081E080939A0235EB2303C0014A
:103010001124992319F090939B0203C081E08093BF
:103020009B028091980281110BC0809199028111BD
:1030300007C080919A02811103C080919B02811187
:103040000E940B17EB82FC820D831E8386E0FE013B
:103050003196A6E9B2E001900D928A95E1F72696A5
:103060000FB6F894DEBF0FBECDBFDF91CF911F9199
:103070000F91FF90EF900895E6E9F2E086E0DF011E
:103080001D928A95E9F71092940210929302109281
:1030900095020895CF93DF9397FF0DC0FB01228126
:1030A000222349F0EC010E947518CE019F770E94FF
:1030B000CC180E94AE1881E0DF91CF9108958CE08A
:1030C00090E00E94AF2590E0A0E0B0E08093CE02B7
:1030D0009093CF02A093D002B093D1020895609153
:1030E000CE028CE090E00C94BD250E94BC1C86951D
:1030F00081708093D3029091CE02913029F488237D
:1031000019F089E30E9460080E94E0108093D202C7
:103110000E94F3108091CE02813071F048F082302D
:1031200081F08430A1F486EE0E94600888E10DC031
:1031300082EE0E9437070BC088E193E00E9497055A
:1031400006C082EE0E94370787E50E9460088FE381
:103150009CE90197F1F700C0000008958091CE022C
:10316000813039F078F0823069F0843089F488E277
:103170000DC08CE20E9460088091D302882341F048
:1031800089E304C082EE0E94E10702C00E94600849
:103190008091D2020C94F0100F931F93CF93DF9382
:1031A0008C01CCE0D0E0C8010C2E02C0969587952A
:1031B0000A94E2F78F700E94CC062497CC3F8FEFE1
:1031C000D80789F7DF91CF911F910F9108950F9341
:1031D0001F93CF93DF93EC018B01FB018281882346
:1031E00061F00E94E010CE01825E9C458530910521
:1031F00020F48093CE020E946F18B801CE01DF91B7
:10320000CF911F910F910C944A180F931F93CF9356
:10321000DF93C42FD22FFC0182818823C9F0409311
:103220009E020E94581E90939D0280939C0280E211
:103230008C0F883008F057C0C77081E001C0880F3C
:10324000CA95EAF7DF91CF911F910F910C9469080D
:1032500080919E02481330C080919C0290919D0203
:103260000E94701E883C910538F510E21D0FCD17A5
:10327000B9F080E28C0F883040F4C77081E001C063
:10328000880FCA95EAF70E947008183028F581E087
:103290009D2F977001C0880F9A95EAF70E946908E0
:1032A000802F0E9460081830F0F4D77081E001C0D0
:1032B000880FDA95EAF70AC080E28C0F883098F41C
:1032C000C77081E001C0880FCA95EAF7DF91CF91FE
:1032D0001F910F910C947008802FDF91CF911F9157
:1032E0000F910C946008DF91CF911F910F91089579
:1032F0000F939C01CB01243F4CE5340731F188F456
:10330000293DFCE53F07D9F02A3D4CE5340779F12A
:10331000283D3C45A9F506E221EE41EE68ED7CE54D
:103320002BC0263FFCE53F07E1F0A8F0273F3C45D6
:1033300039F507E225EE46EE67EF7CE51DC007E2B2
:1033400025EE45EE69ED7CE517C006E221EE40EE84
:1033500064EF7CE511C007E225EE44EE65EF7CE505
:103360000BC006E221EE42EE66EF7CE505C008E206
:1033700021E045EE6AED7CE50E94051980E008C079
:10338000FC018281882319F010929E0201C081E025
:103390000F910895CF93DF93EC01FB018281882385
:1033A00009F426C1C430FDE5DF0760F4CB3F9CE59E
:1033B000D90768F49E0122503C452431310508F0BC
:1033C00018C105C0C236EDE5DE0709F012C10E9442
:1033D000BB119093CD028093CC02C031FCE5DF0796
:1033E00009F4CAC008F041C0C8309CE5D90709F407
:1033F000A4C0F0F4C430FCE5DF0709F48CC068F425
:10340000C2309CE5D90709F482C0C330DC4509F01D
:10341000E5C08091CC028260DFC0C630FCE5DF07EA
:1034200009F483C008F085C08091CC028860D4C0C4
:10343000CC309CE5D90709F490C068F4CA30FCE5AB
:10344000DF0709F47EC008F084C00E94FC0A809166
:10345000CC028068C1C0CE309CE5D90709F481C098
:1034600008F086C08091CC0294C0CD3FFCE5DF0718
:1034700009F47BC038F5C4319CE5D90709F49AC03A
:1034800058F4C231FCE5DF0709F47AC008F07EC0C9
:103490008091CC028F7BA0C0CB3F9CE5D907F1F196
:1034A00008F03FC0C531DC4509F098C08091CC02DE
:1034B00082FB222720F991E0922790FB82F990FB72
:1034C00083F98AC0C1308DE5D80709F467C050F48C
:1034D0008091CD02CF3FECE5DE07C1F108F05BC083
:1034E0008D7F65C0C3308DE5D80709F471C008F43D
:1034F0006DC0C236DD4509F071C08091CC0284FBFD
:10350000222720F991E0922790FB84F965C08091F1
:10351000CC02816061C08091CC0216C08091CD0246
:1035200016C08091CD02826042C08091CC02806141
:1035300053C08091CC0280624FC08091CC028064E5
:103540004BC08091CC028860846046C082608160FC
:103550002EC08091CC028E7F3FC08091CC028D7FA7
:103560003BC08091CC02877F37C08091CD0214C0D0
:103570008091CC028F7E30C08091CC028F7D2CC098
:103580000E94FC0A8091CC028F7726C08091CC02E9
:10359000877F8B7F21C08D7F8E7F09C08091CD0278
:1035A000982F909591708E7F892B90FB81F9809355
:1035B000CD0214C00E94FC0A8091CC0287FB222716
:1035C00020F991E0922790FB87F906C081E001C0C5
:1035D00080E00E94521202C08093CC028091CC0203
:1035E0009091CD020E94CC110E94FC0A80E001C0A3
:1035F00081E0DF91CF910895CF93DF9386319C4591
:1036000041F5EB010E94E010982F8A812091000182
:1036100030910101882379F09A7A81E009F480E001
:1036200080939F02911102C069E201C065E3C90164
:103630000E94A91D0AC080919F02811102C069E207
:1036400001C065E3C9010E94B41D0E94351180E0EC
:1036500001C081E0DF91CF9108951092B9008CE014
:103660008093B80008959F92AF92BF92CF92DF925D
:10367000EF92FF920F931F93CF93DF93B82EEB013E
:103680000E94581E6C01C431D10558F0CF3F8FEF16
:10369000D80759F0CE0164E170E00E9481257B01DA
:1036A00007C0EE24E394F12C03C025E0E22EF12CB8
:1036B00084E8A82E94EA992E1092BC009092BC0047
:1036C0000E94581E8C018091BC0087FD08C00E949A
:1036D000581E801B910B8E159F05A8F32AC0809160
:1036E000B900887F883041F08091B900887F8031AF
:1036F00019F00FEF1FEF1FC0B092BB00A092BC00EB
:103700000E94581E8C018091BC0087FD08C00E9459
:10371000581E801B910B8E159F05A8F30AC080913F
:10372000B900887F883111F0803419F700E010E08B
:103730000EC00EEF1FEFCF3F8FEFD80709F4BCCFBD
:10374000C6010E94701E8C179D0708F4B5CFC801F2
:10375000DF91CF911F910F91FF90EF90DF90CF906D
:10376000BF90AF909F9008950F931F93CF93DF93D7
:10377000EB018093BB0084E88093BC000E94581E3C
:103780008C018091BC0087FD0EC0CF3F8FEFD80722
:10379000C1F30E94581E801B910B8C179D0788F364
:1037A0008EEF9FEF0CC02091B900287F81E090E060
:1037B000283211F480E090E0919581959109DF9194
:1037C000CF911F910F9108950F931F93CF93DF9384
:1037D000EC0184EC8093BC000E94581E8C01809107
:1037E000BC0087FD0EC0CF3F8FEFD807C1F30E940A
:1037F000581E801B910B8C179D0788F38EEF9FEF4F
:1038000003C08091BB0090E0DF91CF911F910F9199
:1038100008950F931F93CF93DF93EC0184E8809377
:10382000BC000E94581E8C018091BC0087FD0EC018
:10383000CF3F8FEFD807C1F30E94581E801B910B1A
:103840008C179D0788F38EEF9FEF03C08091BB001C
:1038500090E0DF91CF911F910F910895CF92DF9269
:10386000EF92FF920F931F93CF93DF93C62F6A01BE
:103870007901B8010E94331B97FD11C0B8018C2F4C
:103880000E94B41BE601EC0CFD1CCE15DF0539F0DF
:1038900097FD05C0B80189910E94B41BF6CF24E9B9
:1038A0002093BC00DF91CF911F910F91FF90EF907B
:1038B000DF90CF900895CF92DF92EF92FF920F9317
:1038C0001F93CF93DF93D82EC62E7A01E901B8015A
:1038D0000E94331B97FD2AC0B8018C2D0E94B41B97
:1038E00097FD24C0B8018D2D81600E94331B6701B4
:1038F000219796012E193F092C173D0768F497FD73
:1039000015C0C8010E94E41B97FD02C0F601808328
:10391000FFEFCF1ADF0AEDCF97FD08C0C8010E9464
:10392000091C97FD03C0CE0DDF1D888324E9209379
:10393000BC001816190614F480E090E0DF91CF91D6
:103940001F910F91FF90EF90DF90CF90089584E941
:103950008093BC0008959093A5028093A4020895DB
:10396000E091A402F091A502309721F00190F0813E
:10397000E02D099480E008950E94B01C0895E09124
:10398000A402F091A502309799F020911201222310
:1039900059F02091CC0227FF07C0DC012C91119631
:1039A0002C93119725E02C930280F381E02D09944C
:1039B0000895E091A402F091A502309739F022E039
:1039C000DC012C930480F581E02D09940895209169
:1039D000A2023091A3022817390771F09093A30235
:1039E0008093A202E091A402F091A502309721F009
:1039F0000680F781E02D099408952091A00230916E
:103A0000A1022817390771F09093A1028093A002B8
:103A1000E091A402F091A502309721F00084F18595
:103A2000E02D09940895FC013296809112018823BB
:103A300031F08091CC0287FF02C09EE101C096E088
:103A400080E0915028F021912223D9F38F5FF9CFA4
:103A50000895662351F1209112012223E9F020916B
:103A6000CC0227FF19C0462F4695469546954E3104
:103A7000E0F4677021E030E002C0220F331F6A9546
:103A8000E2F7FC01E40FF11D828190E02823392345
:103A900081E0232B69F409C0FC013296089621913C
:103AA000621729F0E817F907D1F780E0089581E05F
:103AB00008959C01FC0132969FEF80E041914617EA
:103AC00089F09F3F19F4411101C0982F8F5F863014
:103AD000A9F79F3F39F0F901E90FF11D97FDFA951C
:103AE0006283089508959C012A5F3F4FFC01428143
:103AF000461301C01282019682179307B9F7089501
:103B0000262F2695269526952E3168F4FC01E20F86
:103B1000F11D677021E030E001C0220F6A95EAF7DD
:103B20008281282B22830895262F26952695269577
:103B30002E3170F4FC01E20FF11D677021E030E0DE
:103B400001C0220F6A95EAF72095828128232283FB
:103B5000089520911201222329F02091CC0227FD03
:103B60000C94801D0C94591D20911201222329F0E0
:103B70002091CC0227FD0C94941D0C94731D209170
:103B80001201FC013296222331F08091CC0287FF92
:103B900002C08EE101C086E0DF011D928A95E9F73F
:103BA0000895089508950C94D21DCF930E940A039E
:103BB0000E9463030E94D31DC0E08C2F0E94180452
:103BC000892B29F4CF5FC630C1F780E001C081E0C6
:103BD000CF9108950C94D21D0C94EA1D8091DC02C3
:103BE000843049F10E94EC1D80E00E94DE061092B4
:103BF000A60220E488E190E00FB6F894A89580939F
:103C000060000FBE2093600083B7817F846083BF14
:103C100083B7816083BF7894889583B78E7F83BF95
:103C20000FB6F894A8958091600088618093600039
:103C3000109260000FBE08950C94D21D0E94FC0AE1
:103C40000E94B01C0E94DE060C941C1E1F920F9254
:103C50000FB60F9211248F939F93AF93BF938091D0
:103C6000A602811113C08091D4029091D502A09137
:103C7000D602B091D7024196A11DB11D8093D40206
:103C80009093D502A093D602B093D702BF91AF9183
:103C90009F918F910F900FBE0F901F90189582E00B
:103CA00084BD93E095BD9AEF97BD80936E00089513
:103CB0002FB7F8948091D4029091D502A091D602AA
:103CC000B091D7022FBF08952FB7F8946091D40216
:103CD0007091D5028091D6029091D7022FBF08959E
:103CE0009C014FB7F8948091D4029091D502A09195
:103CF000D602B091D7024FBF821B930B08957894E0
:103D00001F920F920FB60F9211248F939F93AF9330
:103D1000BF938091D4029091D502A091D602B09128
:103D2000D7020196A11DB11D8093D4029093D502B4
:103D3000A093D602B093D702BF91AF919F918F917C
:103D40000F900FBE0F901F90189587E797E79093FD
:103D50000108809300089AE088E10FB6F894A895CE
:103D6000809360000FBE90936000FFCF9093770127
:103D70008093760108958091CA0208959091DC02A3
:103D8000943031F58093A7027093A9026093A80242
:103D900082E08093E9008FEF9091E800815095FDDB
:103DA00006C095ED9A95F1F700008111F5CF80914D
:103DB000E80085FF0DC040E050E063E070E087EA76
:103DC00092E00E94E3208091E8008E778093E800E3
:103DD0000895BC0184E00C94BE1EBC0183E00C94E9
:103DE000BE1E22E02093E9002FEF3091E800215021
:103DF00035FD06C035ED3A95F1F700002111F5CFFC
:103E00002091E80025FF0BC040E050E066E070E044
:103E10000E94E3208091E8008E778093E800089567
:103E2000CF93DF9320911201222339F02091CC020D
:103E300027FF03C060E222E002C068E021E0209397
:103E4000E9002FEF3091E800215035FD06C035ED37
:103E50003A95F1F700002111F5CF2091E80025FFF8
:103E60001DC0EC0180911201811105C040E050E0BD
:103E700068E070E003C070E040E050E0CE010E94D6
:103E8000E3208091E8008E778093E80080E2FE01D5
:103E9000AAEAB2E001900D928A95E1F7DF91CF9105
:103EA00008958091DB02811109C00E9474220E9452
:103EB000D1228091E20084608093E2000895109204
:103EC000DB02089508950895089542E061EC81E0D1
:103ED0000E94ED2142E261EC82E00C94ED218091A0
:103EE000DE02833009F460C030F4813071F082303A
:103EF00009F499C008958A3009F485C08B3009F41B
:103F00006BC0893009F0A7C020C08091DD02813AE2
:103F100009F0A1C08091E800877F8093E80080913C
:103F2000E1029091E202892B21F460E28AEA92E0B8
:103F300003C060E080E090E070E00E942E2180915C
:103F4000E8008B778093E80008958091DD0281324C
:103F500009F081C08091E1029091E202029708F09D
:103F60007AC08091E800877F8093E8008091E80024
:103F700082FD05C08091DC028111F8CF6CC02091D8
:103F8000F3008091F20090E0922B029729F4809147
:103F9000F1008B7F813021F48091F1008093CA027F
:103FA0008091E8008B7753C08091DD02813A09F05F
:103FB00052C08091E1029091E202892B09F04BC03E
:103FC0008091E800877F8093E8008091E80080FF7F
:103FD000FCCF8091120136C08091DD028132D9F58B
:103FE0008091E1029091E202892BA9F58091E8008D
:103FF000877F8093E8000E9422228091DF028093D5
:1040000012010C94FC0A8091DD02813221F580912D
:10401000E800877F8093E8000E9422228091E002DE
:104020008093CB0208958091DD02813AA1F48091C2
:10403000E800877F8093E8008091E80080FFFCCF54
:104040008091CB028093F1008091E8008E7780937D
:10405000E8000C942222089584B7877F84BF0FB6AE
:10406000F894A89580916000886180936000109218
:1040700060000FBE90E080E80FB6F8948093610076
:10408000909361000FBE0C9482120E9474220E94D1
:10409000D122E2EEF0E080818460808378940E94F7
:1040A00066250E94901288E091E00C94AB1C8091F0
:1040B000DC028530A9F48091DC02853079F40E941D
:1040C000EE1D8091DA028823B1F30E94D51D88236A
:1040D00091F30E94CD200E94FC0AEDCF0E941E1E8B
:1040E0000C94A1120C947420292F3327233031050E
:1040F000C9F060F42130310581F02230310509F03A
:1041000044C08BE390E020ED33E043C02132310521
:10411000E1F02232310549F138C082E190E02BE034
:1041200034E037C099278130910549F028F0029793
:1041300061F5E4EAF3E005C0ECECF3E002C0E8EB83
:10414000F3E0849190E09F0124C06115710541F076
:1041500061307105D1F489E090E02BEF33E019C0B4
:1041600089E090E022EE33E014C06115710541F062
:104170006130710551F486EB90E02DE134E009C027
:1041800080E490E023ED34E004C080E090E020E0A3
:1041900030E0FA0131832083089580E189BD82E116
:1041A00089BD09B400FEFDCF8091D8008F7D80933A
:1041B000D8008091E00082608093E0008091E00070
:1041C00081FDFCCF0895CF92DF92EF92FF920F9383
:1041D0001F93CF93DF93EC018B017A010E94412260
:1041E000811133C0E114F10439F0F701808191812C
:1041F000081B190BC80FD91FC12CD12C0115110593
:1042000019F18091E80085FD16C08091E8008E7755
:104210008093E800E114F10449F0F7018081918175
:10422000C80ED91ED182C08285E00FC00E944122F3
:10423000882321F30AC089918093F100015011096C
:10424000FFEFCF1ADF0ADACF80E0DF91CF911F9125
:104250000F91FF90EF90DF90CF9008952091E302AF
:104260003091E4022617370748F06115710539F4DB
:104270002091E8002E772093E80001C0B901FC01ED
:1042800020E06115710579F18091DC028823F1F15C
:104290008530F1F18091E80083FD3CC08091E80019
:1042A00082FD2EC08091E80080FFEBCF2091F300CB
:1042B0008091F20090E0922B6115710551F08830E9
:1042C000910538F421912093F10061507109019614
:1042D000F3CF21E0089709F020E08091E8008E7785
:1042E0008093E800CECF2111CFCF0AC08091DC02AD
:1042F000882361F0853061F08091E80083FD0AC079
:104300008091E80082FFF2CF80E0089582E0089576
:1043100083E0089581E008952091E3023091E40262
:104320002617370748F06115710539F42091E80028
:104330002E772093E80001C0B901FC0120E061154F
:10434000710591F18091DC02882309F440C0853029
:1043500009F43FC08091E80083FD3DC08091E800F2
:1043600082FD2FC08091E80080FFE9CF2091F3000B
:104370008091F20090E0922B6115710559F0883020
:10438000910540F424912093F10031966150710918
:104390000196F2CF21E0089709F020E08091E80033
:1043A0008E778093E800CBCF2111CCCF0AC08091CB
:1043B000DC02882361F0853061F08091E80083FDA4
:1043C0000AC08091E80082FFF2CF80E0089582E089
:1043D000089583E0089581E00895982F973068F557
:1043E0009093E900981739F07091EC002091ED005E
:1043F0005091F00003C0242F762F50E021FD02C021
:104400009F5FECCF3091EB003E7F3093EB0030911B
:10441000ED003D7F3093ED003091EB003160309343
:10442000EB007093EC002093ED005093F00020918E
:10443000EE0027FDE5CF80E008958F708093E900BE
:1044400081E008958091DD0287FF11C08091E8002E
:1044500082FD05C08091DC028111F8CF11C08091EE
:10446000E8008B770BC08091DC02882349F08091B3
:10447000E80080FFF8CF8091E8008E778093E80015
:1044800008952091E4003091E50095E64091EC001C
:10449000842F817040FF23C08091E80080FD1DC003
:1044A0008091DC02882399F0853099F08091EB00AF
:1044B00085FD11C04091E4005091E50024173507B7
:1044C00029F3915011F09A01E1CF84E0089582E040
:1044D000089583E0089581E0089580E00895409173
:1044E000E80042FFDDCF08950E94E2220E94EA2206
:1044F000E0EEF0E0808181608083E8EDF0E0808193
:104500008F77808319BCA7EDB0E08C918E7F8C9360
:1045100080818F7E80831092DB0208950F931F931A
:10452000CF93DF930E94E2220E94EA22C8EDD0E0FE
:1045300088818F77888388818068888388818F7D50
:10454000888319BC1092DC021092D8021092DA0211
:104550001092D90200EE10E0F80180818B7F8083F9
:1045600088818160888342E060E080E00E94ED21E4
:10457000E1EEF0E080818E7F8083E2EEF0E08081EA
:1045800081608083808188608083F80180818E7F54
:104590008083888180618883DF91CF911F910F9103
:1045A0000895E8EDF0E080818F7E8083E7EDF0E014
:1045B00080818160808384E082BF81E08093DB0220
:1045C0000C948E22E8EDF0E080818E7F8083109243
:1045D000E20008951092DA001092E10008951F920F
:1045E0000F920FB60F9211242F933F934F935F9327
:1045F0006F937F938F939F93AF93BF93EF93FF93AB
:104600008091E10082FF0BC08091E20082FF07C031
:104610008091E1008B7F8093E1000E94652580916D
:10462000DA0080FF1FC08091D80080FF1BC08091FE
:10463000DA008E7F8093DA008091D90080FF0DC070
:1046400080E189BD82E189BD09B400FEFDCF81E032
:104650008093DC020E94511F05C019BC1092DC023D
:104660000E945F1F8091E10080FF19C08091E200ED
:1046700080FF15C08091E2008E7F8093E2008091E0
:10468000E20080618093E2008091D8008062809394
:10469000D80019BC85E08093DC020E94631F8091E2
:1046A000E10084FF30C08091E20084FF2CC080E1F3
:1046B00089BD82E189BD09B400FEFDCF8091D8009B
:1046C0008F7D8093D8008091E1008F7E8093E10000
:1046D0008091E2008F7E8093E2008091E200816011
:1046E0008093E2008091D802882311F084E007C013
:1046F0008091E30087FD02C081E001C083E08093E8
:10470000DC020E94641F8091E10083FF29C0809138
:10471000E20083FF25C08091E100877F8093E10064
:1047200082E08093DC021092D8028091E1008E7FBB
:104730008093E1008091E2008E7F8093E20080917F
:10474000E20080618093E20042E060E080E00E944D
:10475000ED218091F00088608093F0000E94621F3C
:10476000FF91EF91BF91AF919F918F917F916F9149
:104770005F914F913F912F910F900FBE0F901F901F
:1047800018951F920F920FB60F9211242F933F93FB
:104790004F935F936F937F938F939F93AF93BF9349
:1047A000CF93DF93EF93FF93C091E900CF70809197
:1047B000EC00D82FD17080FDD0E81092E9008091F4
:1047C000F000877F8093F00078940E940524109277
:1047D000E9008091F00088608093F000CD2BCF70CD
:1047E000C093E900FF91EF91DF91CF91BF91AF911D
:1047F0009F918F917F916F915F914F913F912F91F9
:104800000F900FBE0F901F9018951F93CF93DF93BB
:10481000CDB7DEB7AA970FB6F894DEBF0FBECDBFF7
:10482000EDEDF2E08091F100819322E0E53EF207A8
:10483000C9F70E946F1F8091E80083FF2EC180910D
:10484000DD029091DE02492F50E04A30510508F018
:1048500024C1FA01EC58FF4F0C94A925803821F0AF
:10486000823809F01AC108C08091D9029091DA0209
:10487000992389F082600FC08091E1028F708730A8
:1048800008F00BC18093E9008091EB0085FB88273D
:1048900080F91092E9009091E800977F9093E800EA
:1048A0008093F1001092F100D1C0282F2D7F09F0E4
:1048B000F4C0882319F0823061F0EFC08091DF02EC
:1048C000813009F0EAC0933009F080E08093DA0289
:1048D0002EC08091DF0281112AC08091E1028F7089
:1048E0002FEF280F263008F0D8C08093E9002091E0
:1048F000EB0020FF1CC0933021F48091EB0080621C
:1049000014C09091EB0090619093EB0021E030E0B7
:10491000A90102C0440F551F8A95E2F74093EA00AF
:104920001092EA008091EB0088608093EB00109277
:10493000E9008091E800877F8093E8000E942222AE
:10494000ACC08111AAC01091DF021F778091E300F3
:104950008078812B8093E3008091E800877F8093AB
:10496000E8000E9422228091E80080FFFCCF809125
:10497000E30080688093E300111102C082E001C06F
:1049800083E08093DC0289C08058823008F085C0C3
:104990008091DF029091E0028C3D53E0950779F51C
:1049A00083E08A838AE289834FB7F894DE01139605
:1049B00020E03EE051E2E32FF0E050935700E49115
:1049C00020FF03C0E295EF703F5FEF708E2F90E005
:1049D000EA3010F0C79601C0C0968D939D932F5F6B
:1049E000243149F74FBF8091E800877F8093E8002A
:1049F0006AE270E0CE0101960E942E2116C06091FD
:104A0000E1027091E202AE014F5F5F4F0E9472209F
:104A1000BC01892B09F441C09091E800977F9093E5
:104A2000E80089819A810E948C218091E8008B772F
:104A30008093E80032C0803881F58091E800877F5C
:104A40008093E8008091D8028093F1008091E80083
:104A50008E7772CF811121C08091DF029091E002A8
:104A600099270297D4F48091E800877F8093E8002B
:104A70008091DF028093D8020E9422228091D80286
:104A8000811106C08091E30087FD02C081E001C072
:104A900084E08093DC020E94651F8091E80083FF20
:104AA0000AC08091E800877F8093E8008091EB0046
:104AB00080628093EB00AA960FB6F894DEBF0FBE1B
:104AC000CDBFDF91CF911F9108950895CF9380912D
:104AD000DC028823A1F0C091E900CF709091EC0036
:104AE000892F817090FD80E8C82B1092E900809199
:104AF000E80083FD0E940524CF70C093E900CF91A8
:104B00000895AA1BBB1B51E107C0AA1FBB1FA61714
:104B1000B70710F0A61BB70B881F991F5A95A9F766
:104B200080959095BC01CD01089597FB072E16F452
:104B3000009407D077FD09D00E94812507FC05D09D
:104B40003EF4909581959F4F0895709561957F4FA4
:104B50000895EE0FFF1F0590F491E02D0994F99947
:104B6000FECF92BD81BDF89A992780B50895A8E13E
:104B7000B0E042E050E00C94E325262FF999FECFF7
:104B800092BD81BDF89A019700B4021639F01FBAA0
:104B900020BD0FB6F894FA9AF99A0FBE08950396BD
:104BA000272F0E94BE250E94BD25252F0E94BE25CD
:104BB000242F0C94BE250196272F0E94BE250C940D
:104BC000BD25DC01CB01FC01F999FECF06C0F2BD89
:104BD000E1BDF89A319600B40D9241505040B8F7BB
:064BE0000895F894FFCFD8
:104BE60054022808643C0714BB1E101FF11EED1E5C
:104BF600E91E01E200E900EA00B500B600B700CD03
:104C0600008301CC008A019201940121022302242F
:104C1600022502260227022A02B300B4006F0070A2
:104C260000818283E200E900EA00B500B600B70021
:104C3600CD008301CC008A01920194012102230256
:104C460024022502260227022A02B300B4006F00BE
:064C560070008182830062
:00000001FF
